{
  "contractName": "ConvertLib",
  "abi": [
    {
      "inputs": [
        {
          "internalType": "uint256",
          "name": "amount",
          "type": "uint256"
        },
        {
          "internalType": "uint256",
          "name": "conversionRate",
          "type": "uint256"
        }
      ],
      "name": "convert",
      "outputs": [
        {
          "internalType": "uint256",
          "name": "convertedAmount",
          "type": "uint256"
        }
      ],
      "stateMutability": "pure",
      "type": "function"
    },
    {
      "inputs": [
        {
          "internalType": "uint256",
          "name": "sumInEth",
          "type": "uint256"
        }
      ],
      "name": "gweiToWei",
      "outputs": [
        {
          "internalType": "uint256",
          "name": "",
          "type": "uint256"
        }
      ],
      "stateMutability": "pure",
      "type": "function"
    },
    {
      "inputs": [
        {
          "internalType": "uint256",
          "name": "timeInMin",
          "type": "uint256"
        }
      ],
      "name": "minutesToSeconds",
      "outputs": [
        {
          "internalType": "uint256",
          "name": "",
          "type": "uint256"
        }
      ],
      "stateMutability": "pure",
      "type": "function"
    }
  ],
  "bytecode": "0x6102a9610053600b82828239805160001a607314610046577f4e487b7100000000000000000000000000000000000000000000000000000000600052600060045260246000fd5b30600052607381538281f3fe730000000000000000000000000000000000000000301460806040526004361061004b5760003560e01c8063529b380f146100505780638dfd0b031461008057806396e4ee3d146100b0575b600080fd5b61006a6004803603810190610065919061013a565b6100e0565b60405161007791906101ae565b60405180910390f35b61009a6004803603810190610095919061013a565b6100f6565b6040516100a791906101ae565b60405180910390f35b6100ca60048036038101906100c59190610163565b61010f565b6040516100d791906101ae565b60405180910390f35b6000603c826100ef91906101c9565b9050919050565b6000633b9aca008261010891906101c9565b9050919050565b6000818361011d91906101c9565b905092915050565b6000813590506101348161025c565b92915050565b60006020828403121561014c57600080fd5b600061015a84828501610125565b91505092915050565b6000806040838503121561017657600080fd5b600061018485828601610125565b925050602061019585828601610125565b9150509250929050565b6101a881610223565b82525050565b60006020820190506101c3600083018461019f565b92915050565b60006101d482610223565b91506101df83610223565b9250817fffffffffffffffffffffffffffffffffffffffffffffffffffffffffffffffff04831182151516156102185761021761022d565b5b828202905092915050565b6000819050919050565b7f4e487b7100000000000000000000000000000000000000000000000000000000600052601160045260246000fd5b61026581610223565b811461027057600080fd5b5056fea2646970667358221220ba50564385547a6263ac13b810d7c873c0a1e66c4262ad9e15173178527c242b64736f6c63430008000033",
  "immutableReferences": {},
  "source": "// SPDX-License-Identifier: MIT\npragma solidity >=0.4.25;\n\nlibrary ConvertLib{\n\tfunction convert(uint amount,uint conversionRate) public pure returns (uint convertedAmount)\n\t{\n\t\treturn amount * conversionRate;\n\t}\n\tfunction gweiToWei(uint sumInEth) public pure returns(uint){\n\t\treturn sumInEth * 1 gwei;\n\t}\n\n\tfunction minutesToSeconds(uint timeInMin) public pure returns(uint){\n\t\treturn timeInMin * 1 minutes;\n\t}\n}\n",
  "sourcePath": "/workspace/contracts/ConvertLib.sol",
  "compiler": {
    "name": "solc",
    "version": "0.8.0+commit.c7dfd78e.Emscripten.clang"
  },
  "schemaVersion": "3.4.3",
  "updatedAt": "2021-11-12T04:41:54.698Z",
  "networkType": "ethereum",
  "devdoc": {
    "kind": "dev",
    "methods": {},
    "version": 1
  },
  "userdoc": {
    "kind": "user",
    "methods": {},
    "version": 1
  }
}