{
  "contractName": "CrowdFunding",
  "abi": [
    {
      "inputs": [
        {
          "internalType": "string",
          "name": "_name",
          "type": "string"
        },
        {
          "internalType": "uint256",
          "name": "_targetAmountEth",
          "type": "uint256"
        },
        {
          "internalType": "uint256",
          "name": "_durationInMin",
          "type": "uint256"
        },
        {
          "internalType": "address",
          "name": "_beneficiary",
          "type": "address"
        }
      ],
      "stateMutability": "nonpayable",
      "type": "constructor"
    },
    {
      "anonymous": false,
      "inputs": [
        {
          "indexed": false,
          "internalType": "address",
          "name": "addr",
          "type": "address"
        },
        {
          "indexed": false,
          "internalType": "uint256",
          "name": "totalCollected",
          "type": "uint256"
        },
        {
          "indexed": false,
          "internalType": "bool",
          "name": "succeeded",
          "type": "bool"
        }
      ],
      "name": "CampaignFinish",
      "type": "event"
    },
    {
      "inputs": [],
      "name": "state",
      "outputs": [
        {
          "internalType": "enum CrowdFunding.State",
          "name": "",
          "type": "uint8"
        }
      ],
      "stateMutability": "view",
      "type": "function"
    },
    {
      "inputs": [],
      "name": "getName",
      "outputs": [
        {
          "internalType": "string",
          "name": "",
          "type": "string"
        }
      ],
      "stateMutability": "view",
      "type": "function"
    },
    {
      "inputs": [],
      "name": "getTotalCollected",
      "outputs": [
        {
          "internalType": "uint256",
          "name": "",
          "type": "uint256"
        }
      ],
      "stateMutability": "view",
      "type": "function"
    },
    {
      "inputs": [],
      "name": "getTargetAmount",
      "outputs": [
        {
          "internalType": "uint256",
          "name": "",
          "type": "uint256"
        }
      ],
      "stateMutability": "view",
      "type": "function"
    },
    {
      "inputs": [],
      "name": "getFundingDeadline",
      "outputs": [
        {
          "internalType": "uint256",
          "name": "",
          "type": "uint256"
        }
      ],
      "stateMutability": "view",
      "type": "function"
    },
    {
      "inputs": [],
      "name": "getState",
      "outputs": [
        {
          "internalType": "enum CrowdFunding.State",
          "name": "",
          "type": "uint8"
        }
      ],
      "stateMutability": "view",
      "type": "function"
    },
    {
      "inputs": [
        {
          "internalType": "address",
          "name": "addr",
          "type": "address"
        }
      ],
      "name": "getContribAmt",
      "outputs": [
        {
          "internalType": "uint256",
          "name": "",
          "type": "uint256"
        }
      ],
      "stateMutability": "view",
      "type": "function"
    },
    {
      "inputs": [],
      "name": "getBeneficiary",
      "outputs": [
        {
          "internalType": "address",
          "name": "",
          "type": "address"
        }
      ],
      "stateMutability": "view",
      "type": "function"
    },
    {
      "inputs": [],
      "name": "currentTime",
      "outputs": [
        {
          "internalType": "uint256",
          "name": "",
          "type": "uint256"
        }
      ],
      "stateMutability": "view",
      "type": "function"
    },
    {
      "inputs": [],
      "name": "contribute",
      "outputs": [],
      "stateMutability": "payable",
      "type": "function"
    },
    {
      "inputs": [],
      "name": "finishCrowdFunding",
      "outputs": [],
      "stateMutability": "nonpayable",
      "type": "function"
    },
    {
      "inputs": [],
      "name": "beforeDeadline",
      "outputs": [
        {
          "internalType": "bool",
          "name": "",
          "type": "bool"
        }
      ],
      "stateMutability": "view",
      "type": "function"
    },
    {
      "inputs": [],
      "name": "collect",
      "outputs": [],
      "stateMutability": "nonpayable",
      "type": "function"
    },
    {
      "inputs": [],
      "name": "withdraw",
      "outputs": [],
      "stateMutability": "nonpayable",
      "type": "function"
    }
  ],
  "bytecode": "0x60806040523480156200001157600080fd5b506040516200180d3803806200180d833981810160405281019062000037919062000387565b83600090805190602001906200004f92919062000237565b5073__ConvertLib____________________________638dfd0b03846040518263ffffffff1660e01b815260040162000089919062000449565b60206040518083038186803b158015620000a257600080fd5b505af4158015620000b7573d6000803e3d6000fd5b505050506040513d601f19601f82011682018060405250810190620000dd91906200040c565b60018190555073__ConvertLib____________________________63529b380f836040518263ffffffff1660e01b81526004016200011c919062000449565b60206040518083038186803b1580156200013557600080fd5b505af41580156200014a573d6000803e3d6000fd5b505050506040513d601f19601f820116820180604052508101906200017091906200040c565b620001806200022f60201b60201c565b6200018c9190620004cd565b60028190555080600360006101000a81548173ffffffffffffffffffffffffffffffffffffffff021916908373ffffffffffffffffffffffffffffffffffffffff1602179055506000600360146101000a81548160ff0219169083600381111562000220577f4e487b7100000000000000000000000000000000000000000000000000000000600052602160045260246000fd5b02179055505050505062000695565b600042905090565b82805462000245906200059e565b90600052602060002090601f016020900481019282620002695760008555620002b5565b82601f106200028457805160ff1916838001178555620002b5565b82800160010185558215620002b5579182015b82811115620002b457825182559160200191906001019062000297565b5b509050620002c49190620002c8565b5090565b5b80821115620002e3576000816000905550600101620002c9565b5090565b6000620002fe620002f8846200049a565b62000466565b9050828152602081018484840111156200031757600080fd5b6200032484828562000568565b509392505050565b6000815190506200033d8162000661565b92915050565b600082601f8301126200035557600080fd5b815162000367848260208601620002e7565b91505092915050565b60008151905062000381816200067b565b92915050565b600080600080608085870312156200039e57600080fd5b600085015167ffffffffffffffff811115620003b957600080fd5b620003c78782880162000343565b9450506020620003da8782880162000370565b9350506040620003ed8782880162000370565b925050606062000400878288016200032c565b91505092959194509250565b6000602082840312156200041f57600080fd5b60006200042f8482850162000370565b91505092915050565b62000443816200055e565b82525050565b600060208201905062000460600083018462000438565b92915050565b6000604051905081810181811067ffffffffffffffff8211171562000490576200048f62000632565b5b8060405250919050565b600067ffffffffffffffff821115620004b857620004b762000632565b5b601f19601f8301169050602081019050919050565b6000620004da826200055e565b9150620004e7836200055e565b9250827fffffffffffffffffffffffffffffffffffffffffffffffffffffffffffffffff038211156200051f576200051e620005d4565b5b828201905092915050565b600062000537826200053e565b9050919050565b600073ffffffffffffffffffffffffffffffffffffffff82169050919050565b6000819050919050565b60005b83811015620005885780820151818401526020810190506200056b565b8381111562000598576000848401525b50505050565b60006002820490506001821680620005b757607f821691505b60208210811415620005ce57620005cd62000603565b5b50919050565b7f4e487b7100000000000000000000000000000000000000000000000000000000600052601160045260246000fd5b7f4e487b7100000000000000000000000000000000000000000000000000000000600052602260045260246000fd5b7f4e487b7100000000000000000000000000000000000000000000000000000000600052604160045260246000fd5b6200066c816200052a565b81146200067857600080fd5b50565b62000686816200055e565b81146200069257600080fd5b50565b61116880620006a56000396000f3fe6080604052600436106100dd5760003560e01c806391ac4b881161007f578063d18e81b311610059578063d18e81b31461027a578063d7bb99ba146102a5578063e5225381146102af578063fbe5d87e146102c6576100dd565b806391ac4b88146101e7578063c19d93fb14610212578063ce40e3d41461023d576100dd565b80633ccfd60b116100bb5780633ccfd60b1461014f578063565a2e2c1461016657806356b6491a1461019157806368bc0041146101bc576100dd565b8063083dca11146100e257806317d7de7c146100f95780631865c57d14610124575b600080fd5b3480156100ee57600080fd5b506100f76102f1565b005b34801561010557600080fd5b5061010e610507565b60405161011b9190610e68565b60405180910390f35b34801561013057600080fd5b50610139610599565b6040516101469190610e4d565b60405180910390f35b34801561015b57600080fd5b506101646105b0565b005b34801561017257600080fd5b5061017b610800565b6040516101889190610de0565b60405180910390f35b34801561019d57600080fd5b506101a661082a565b6040516101b39190610f0a565b60405180910390f35b3480156101c857600080fd5b506101d1610834565b6040516101de9190610e32565b60405180910390f35b3480156101f357600080fd5b506101fc610847565b6040516102099190610f0a565b60405180910390f35b34801561021e57600080fd5b50610227610851565b6040516102349190610e4d565b60405180910390f35b34801561024957600080fd5b50610264600480360381019061025f9190610c42565b610864565b6040516102719190610f0a565b60405180910390f35b34801561028657600080fd5b5061028f6108ad565b60405161029c9190610f0a565b60405180910390f35b6102ad6108b5565b005b3480156102bb57600080fd5b506102c4610a58565b005b3480156102d257600080fd5b506102db610c23565b6040516102e89190610f0a565b60405180910390f35b600080600381111561032c577f4e487b7100000000000000000000000000000000000000000000000000000000600052602160045260246000fd5b600360149054906101000a900460ff166003811115610374577f4e487b7100000000000000000000000000000000000000000000000000000000600052602160045260246000fd5b146103b4576040517f08c379a00000000000000000000000000000000000000000000000000000000081526004016103ab90610eea565b60405180910390fd5b6103bc610834565b156103fc576040517f08c379a00000000000000000000000000000000000000000000000000000000081526004016103f390610eaa565b60405180910390fd5b600560009054906101000a900460ff16610466576001600360146101000a81548160ff0219169083600381111561045c577f4e487b7100000000000000000000000000000000000000000000000000000000600052602160045260246000fd5b02179055506104b8565b6002600360146101000a81548160ff021916908360038111156104b2577f4e487b7100000000000000000000000000000000000000000000000000000000600052602160045260246000fd5b02179055505b7f7ccbb520303a5cff021f34a831dad11a7472e6eb771da7492789394806039bf730600654600560009054906101000a900460ff166040516104fc93929190610dfb565b60405180910390a150565b60606000805461051690611037565b80601f016020809104026020016040519081016040528092919081815260200182805461054290611037565b801561058f5780601f106105645761010080835404028352916020019161058f565b820191906000526020600020905b81548152906001019060200180831161057257829003601f168201915b5050505050905090565b6000600360149054906101000a900460ff16905090565b60018060038111156105eb577f4e487b7100000000000000000000000000000000000000000000000000000000600052602160045260246000fd5b600360149054906101000a900460ff166003811115610633577f4e487b7100000000000000000000000000000000000000000000000000000000600052602160045260246000fd5b14610673576040517f08c379a000000000000000000000000000000000000000000000000000000000815260040161066a90610eea565b60405180910390fd5b6000600460003373ffffffffffffffffffffffffffffffffffffffff1673ffffffffffffffffffffffffffffffffffffffff16815260200190815260200160002054116106f5576040517f08c379a00000000000000000000000000000000000000000000000000000000081526004016106ec90610e8a565b60405180910390fd5b6000600460003373ffffffffffffffffffffffffffffffffffffffff1673ffffffffffffffffffffffffffffffffffffffff1681526020019081526020016000205490506000600460003373ffffffffffffffffffffffffffffffffffffffff1673ffffffffffffffffffffffffffffffffffffffff168152602001908152602001600020819055503373ffffffffffffffffffffffffffffffffffffffff166108fc829081150290604051600060405180830381858888f193505050506107fc5780600460003373ffffffffffffffffffffffffffffffffffffffff1673ffffffffffffffffffffffffffffffffffffffff168152602001908152602001600020819055505b5050565b6000600360009054906101000a900473ffffffffffffffffffffffffffffffffffffffff16905090565b6000600254905090565b60006002546108416108ad565b10905090565b6000600154905090565b600360149054906101000a900460ff1681565b6000600460008373ffffffffffffffffffffffffffffffffffffffff1673ffffffffffffffffffffffffffffffffffffffff168152602001908152602001600020549050919050565b600042905090565b60008060038111156108f0577f4e487b7100000000000000000000000000000000000000000000000000000000600052602160045260246000fd5b600360149054906101000a900460ff166003811115610938577f4e487b7100000000000000000000000000000000000000000000000000000000600052602160045260246000fd5b14610978576040517f08c379a000000000000000000000000000000000000000000000000000000000815260040161096f90610eea565b60405180910390fd5b610980610834565b6109bf576040517f08c379a00000000000000000000000000000000000000000000000000000000081526004016109b690610eca565b60405180910390fd5b34600460003373ffffffffffffffffffffffffffffffffffffffff1673ffffffffffffffffffffffffffffffffffffffff1681526020019081526020016000206000828254610a0e9190610f41565b925050819055503460066000828254610a279190610f41565b9250508190555060015460065410610a55576001600560006101000a81548160ff0219169083151502179055505b50565b6002806003811115610a93577f4e487b7100000000000000000000000000000000000000000000000000000000600052602160045260246000fd5b600360149054906101000a900460ff166003811115610adb577f4e487b7100000000000000000000000000000000000000000000000000000000600052602160045260246000fd5b14610b1b576040517f08c379a0000000000000000000000000000000000000000000000000000000008152600401610b1290610eea565b60405180910390fd5b600360009054906101000a900473ffffffffffffffffffffffffffffffffffffffff1673ffffffffffffffffffffffffffffffffffffffff166108fc6006549081150290604051600060405180830381858888f1935050505015610bce5760038060146101000a81548160ff02191690836003811115610bc4577f4e487b7100000000000000000000000000000000000000000000000000000000600052602160045260246000fd5b0217905550610c20565b6001600360146101000a81548160ff02191690836003811115610c1a577f4e487b7100000000000000000000000000000000000000000000000000000000600052602160045260246000fd5b02179055505b50565b6000600654905090565b600081359050610c3c8161111b565b92915050565b600060208284031215610c5457600080fd5b6000610c6284828501610c2d565b91505092915050565b610c7481610f97565b82525050565b610c8381610fa9565b82525050565b610c9281610ff2565b82525050565b6000610ca382610f25565b610cad8185610f30565b9350610cbd818560208601611004565b610cc6816110f6565b840191505092915050565b6000610cde601383610f30565b91507f4e6f7468696e6720636f6e7472696275746564000000000000000000000000006000830152602082019050919050565b6000610d1e601d83610f30565b91507f43616e6e6f742066696e697368206265666f726520646561646c696e650000006000830152602082019050919050565b6000610d5e600783610f30565b91507f4f766572647565000000000000000000000000000000000000000000000000006000830152602082019050919050565b6000610d9e600d83610f30565b91507f496e61766c6964207374617465000000000000000000000000000000000000006000830152602082019050919050565b610dda81610fe8565b82525050565b6000602082019050610df56000830184610c6b565b92915050565b6000606082019050610e106000830186610c6b565b610e1d6020830185610dd1565b610e2a6040830184610c7a565b949350505050565b6000602082019050610e476000830184610c7a565b92915050565b6000602082019050610e626000830184610c89565b92915050565b60006020820190508181036000830152610e828184610c98565b905092915050565b60006020820190508181036000830152610ea381610cd1565b9050919050565b60006020820190508181036000830152610ec381610d11565b9050919050565b60006020820190508181036000830152610ee381610d51565b9050919050565b60006020820190508181036000830152610f0381610d91565b9050919050565b6000602082019050610f1f6000830184610dd1565b92915050565b600081519050919050565b600082825260208201905092915050565b6000610f4c82610fe8565b9150610f5783610fe8565b9250827fffffffffffffffffffffffffffffffffffffffffffffffffffffffffffffffff03821115610f8c57610f8b611069565b5b828201905092915050565b6000610fa282610fc8565b9050919050565b60008115159050919050565b6000819050610fc382611107565b919050565b600073ffffffffffffffffffffffffffffffffffffffff82169050919050565b6000819050919050565b6000610ffd82610fb5565b9050919050565b60005b83811015611022578082015181840152602081019050611007565b83811115611031576000848401525b50505050565b6000600282049050600182168061104f57607f821691505b60208210811415611063576110626110c7565b5b50919050565b7f4e487b7100000000000000000000000000000000000000000000000000000000600052601160045260246000fd5b7f4e487b7100000000000000000000000000000000000000000000000000000000600052602160045260246000fd5b7f4e487b7100000000000000000000000000000000000000000000000000000000600052602260045260246000fd5b6000601f19601f8301169050919050565b6004811061111857611117611098565b5b50565b61112481610f97565b811461112f57600080fd5b5056fea26469706673582212205c0e716e83d86f31f89d0b2a28acd64316742795a42dbda6c6367238a6a3943d64736f6c63430008000033",
  "deployedBytecode": "0x6080604052600436106100dd5760003560e01c806391ac4b881161007f578063d18e81b311610059578063d18e81b31461027a578063d7bb99ba146102a5578063e5225381146102af578063fbe5d87e146102c6576100dd565b806391ac4b88146101e7578063c19d93fb14610212578063ce40e3d41461023d576100dd565b80633ccfd60b116100bb5780633ccfd60b1461014f578063565a2e2c1461016657806356b6491a1461019157806368bc0041146101bc576100dd565b8063083dca11146100e257806317d7de7c146100f95780631865c57d14610124575b600080fd5b3480156100ee57600080fd5b506100f76102f1565b005b34801561010557600080fd5b5061010e610507565b60405161011b9190610e68565b60405180910390f35b34801561013057600080fd5b50610139610599565b6040516101469190610e4d565b60405180910390f35b34801561015b57600080fd5b506101646105b0565b005b34801561017257600080fd5b5061017b610800565b6040516101889190610de0565b60405180910390f35b34801561019d57600080fd5b506101a661082a565b6040516101b39190610f0a565b60405180910390f35b3480156101c857600080fd5b506101d1610834565b6040516101de9190610e32565b60405180910390f35b3480156101f357600080fd5b506101fc610847565b6040516102099190610f0a565b60405180910390f35b34801561021e57600080fd5b50610227610851565b6040516102349190610e4d565b60405180910390f35b34801561024957600080fd5b50610264600480360381019061025f9190610c42565b610864565b6040516102719190610f0a565b60405180910390f35b34801561028657600080fd5b5061028f6108ad565b60405161029c9190610f0a565b60405180910390f35b6102ad6108b5565b005b3480156102bb57600080fd5b506102c4610a58565b005b3480156102d257600080fd5b506102db610c23565b6040516102e89190610f0a565b60405180910390f35b600080600381111561032c577f4e487b7100000000000000000000000000000000000000000000000000000000600052602160045260246000fd5b600360149054906101000a900460ff166003811115610374577f4e487b7100000000000000000000000000000000000000000000000000000000600052602160045260246000fd5b146103b4576040517f08c379a00000000000000000000000000000000000000000000000000000000081526004016103ab90610eea565b60405180910390fd5b6103bc610834565b156103fc576040517f08c379a00000000000000000000000000000000000000000000000000000000081526004016103f390610eaa565b60405180910390fd5b600560009054906101000a900460ff16610466576001600360146101000a81548160ff0219169083600381111561045c577f4e487b7100000000000000000000000000000000000000000000000000000000600052602160045260246000fd5b02179055506104b8565b6002600360146101000a81548160ff021916908360038111156104b2577f4e487b7100000000000000000000000000000000000000000000000000000000600052602160045260246000fd5b02179055505b7f7ccbb520303a5cff021f34a831dad11a7472e6eb771da7492789394806039bf730600654600560009054906101000a900460ff166040516104fc93929190610dfb565b60405180910390a150565b60606000805461051690611037565b80601f016020809104026020016040519081016040528092919081815260200182805461054290611037565b801561058f5780601f106105645761010080835404028352916020019161058f565b820191906000526020600020905b81548152906001019060200180831161057257829003601f168201915b5050505050905090565b6000600360149054906101000a900460ff16905090565b60018060038111156105eb577f4e487b7100000000000000000000000000000000000000000000000000000000600052602160045260246000fd5b600360149054906101000a900460ff166003811115610633577f4e487b7100000000000000000000000000000000000000000000000000000000600052602160045260246000fd5b14610673576040517f08c379a000000000000000000000000000000000000000000000000000000000815260040161066a90610eea565b60405180910390fd5b6000600460003373ffffffffffffffffffffffffffffffffffffffff1673ffffffffffffffffffffffffffffffffffffffff16815260200190815260200160002054116106f5576040517f08c379a00000000000000000000000000000000000000000000000000000000081526004016106ec90610e8a565b60405180910390fd5b6000600460003373ffffffffffffffffffffffffffffffffffffffff1673ffffffffffffffffffffffffffffffffffffffff1681526020019081526020016000205490506000600460003373ffffffffffffffffffffffffffffffffffffffff1673ffffffffffffffffffffffffffffffffffffffff168152602001908152602001600020819055503373ffffffffffffffffffffffffffffffffffffffff166108fc829081150290604051600060405180830381858888f193505050506107fc5780600460003373ffffffffffffffffffffffffffffffffffffffff1673ffffffffffffffffffffffffffffffffffffffff168152602001908152602001600020819055505b5050565b6000600360009054906101000a900473ffffffffffffffffffffffffffffffffffffffff16905090565b6000600254905090565b60006002546108416108ad565b10905090565b6000600154905090565b600360149054906101000a900460ff1681565b6000600460008373ffffffffffffffffffffffffffffffffffffffff1673ffffffffffffffffffffffffffffffffffffffff168152602001908152602001600020549050919050565b600042905090565b60008060038111156108f0577f4e487b7100000000000000000000000000000000000000000000000000000000600052602160045260246000fd5b600360149054906101000a900460ff166003811115610938577f4e487b7100000000000000000000000000000000000000000000000000000000600052602160045260246000fd5b14610978576040517f08c379a000000000000000000000000000000000000000000000000000000000815260040161096f90610eea565b60405180910390fd5b610980610834565b6109bf576040517f08c379a00000000000000000000000000000000000000000000000000000000081526004016109b690610eca565b60405180910390fd5b34600460003373ffffffffffffffffffffffffffffffffffffffff1673ffffffffffffffffffffffffffffffffffffffff1681526020019081526020016000206000828254610a0e9190610f41565b925050819055503460066000828254610a279190610f41565b9250508190555060015460065410610a55576001600560006101000a81548160ff0219169083151502179055505b50565b6002806003811115610a93577f4e487b7100000000000000000000000000000000000000000000000000000000600052602160045260246000fd5b600360149054906101000a900460ff166003811115610adb577f4e487b7100000000000000000000000000000000000000000000000000000000600052602160045260246000fd5b14610b1b576040517f08c379a0000000000000000000000000000000000000000000000000000000008152600401610b1290610eea565b60405180910390fd5b600360009054906101000a900473ffffffffffffffffffffffffffffffffffffffff1673ffffffffffffffffffffffffffffffffffffffff166108fc6006549081150290604051600060405180830381858888f1935050505015610bce5760038060146101000a81548160ff02191690836003811115610bc4577f4e487b7100000000000000000000000000000000000000000000000000000000600052602160045260246000fd5b0217905550610c20565b6001600360146101000a81548160ff02191690836003811115610c1a577f4e487b7100000000000000000000000000000000000000000000000000000000600052602160045260246000fd5b02179055505b50565b6000600654905090565b600081359050610c3c8161111b565b92915050565b600060208284031215610c5457600080fd5b6000610c6284828501610c2d565b91505092915050565b610c7481610f97565b82525050565b610c8381610fa9565b82525050565b610c9281610ff2565b82525050565b6000610ca382610f25565b610cad8185610f30565b9350610cbd818560208601611004565b610cc6816110f6565b840191505092915050565b6000610cde601383610f30565b91507f4e6f7468696e6720636f6e7472696275746564000000000000000000000000006000830152602082019050919050565b6000610d1e601d83610f30565b91507f43616e6e6f742066696e697368206265666f726520646561646c696e650000006000830152602082019050919050565b6000610d5e600783610f30565b91507f4f766572647565000000000000000000000000000000000000000000000000006000830152602082019050919050565b6000610d9e600d83610f30565b91507f496e61766c6964207374617465000000000000000000000000000000000000006000830152602082019050919050565b610dda81610fe8565b82525050565b6000602082019050610df56000830184610c6b565b92915050565b6000606082019050610e106000830186610c6b565b610e1d6020830185610dd1565b610e2a6040830184610c7a565b949350505050565b6000602082019050610e476000830184610c7a565b92915050565b6000602082019050610e626000830184610c89565b92915050565b60006020820190508181036000830152610e828184610c98565b905092915050565b60006020820190508181036000830152610ea381610cd1565b9050919050565b60006020820190508181036000830152610ec381610d11565b9050919050565b60006020820190508181036000830152610ee381610d51565b9050919050565b60006020820190508181036000830152610f0381610d91565b9050919050565b6000602082019050610f1f6000830184610dd1565b92915050565b600081519050919050565b600082825260208201905092915050565b6000610f4c82610fe8565b9150610f5783610fe8565b9250827fffffffffffffffffffffffffffffffffffffffffffffffffffffffffffffffff03821115610f8c57610f8b611069565b5b828201905092915050565b6000610fa282610fc8565b9050919050565b60008115159050919050565b6000819050610fc382611107565b919050565b600073ffffffffffffffffffffffffffffffffffffffff82169050919050565b6000819050919050565b6000610ffd82610fb5565b9050919050565b60005b83811015611022578082015181840152602081019050611007565b83811115611031576000848401525b50505050565b6000600282049050600182168061104f57607f821691505b60208210811415611063576110626110c7565b5b50919050565b7f4e487b7100000000000000000000000000000000000000000000000000000000600052601160045260246000fd5b7f4e487b7100000000000000000000000000000000000000000000000000000000600052602160045260246000fd5b7f4e487b7100000000000000000000000000000000000000000000000000000000600052602260045260246000fd5b6000601f19601f8301169050919050565b6004811061111857611117611098565b5b50565b61112481610f97565b811461112f57600080fd5b5056fea26469706673582212205c0e716e83d86f31f89d0b2a28acd64316742795a42dbda6c6367238a6a3943d64736f6c63430008000033",
  "immutableReferences": {},
  "source": "pragma solidity >= 0.6.0;\n\nimport \"./ConvertLib.sol\";\n\ncontract CrowdFunding{\n\n    enum State {Ongoing,Failed, Succeeded, PaidOut}\n\n    event CampaignFinish(\n       address addr,\n       uint totalCollected,\n       bool succeeded\n    );\n\n    string name;\n    uint targetAmount;\n    uint fundingDeadline;\n    address payable beneficiary;\n    State public state;\n\n    mapping(address => uint) amounts;\n    bool collected;\n    uint totalCollected;\n\n    modifier inState(State expectedState){\n        require(state == expectedState, \"Inavlid state\");\n        _;\n    }\n\n    function getName() public view returns(string memory) {\n        return name;\n    }\n    \n    function getTotalCollected() public view returns(uint){\n        return totalCollected;\n    }\n    function getTargetAmount() public view returns(uint){\n        return targetAmount;\n    }\n\n    function getFundingDeadline() public view returns(uint){\n        return fundingDeadline;\n    }\n\n    function getState() public view returns(State){\n        return state;\n    }\n\n    function getContribAmt(address addr) public view returns(uint){\n        return amounts[addr];\n    }\n\n    function getBeneficiary() public view returns(address){\n        return beneficiary;\n    }\n\n    constructor(\n        string memory _name,\n        uint _targetAmountEth,\n        uint _durationInMin,\n        address _beneficiary\n    ) public {\n\n        name = _name;\n        targetAmount = ConvertLib.gweiToWei(_targetAmountEth);\n        fundingDeadline = currentTime() + ConvertLib.minutesToSeconds(_durationInMin);\n        beneficiary = payable(_beneficiary);\n        state = State.Ongoing;\n    }\n\n    function currentTime() virtual public view returns(uint){\n        return block.timestamp;\n    }\n\n    function contribute() public payable inState(State.Ongoing){\n        require(beforeDeadline(), \"Overdue\");\n        amounts[msg.sender] += msg.value;\n        totalCollected += msg.value;\n\n        if(totalCollected >= targetAmount){\n            collected = true;\n        }\n    }\n    \n    function finishCrowdFunding() public inState(State.Ongoing){\n        require(!beforeDeadline(), \"Cannot finish before deadline\");\n        if(!collected){\n            state = State.Failed;\n        }else{\n            state = State.Succeeded;\n        }\n\n        emit CampaignFinish(address(this), totalCollected, collected);\n    }\n    function beforeDeadline() public view returns(bool){\n         return currentTime() < fundingDeadline;\n    }\n\n    function collect() public inState(State.Succeeded){\n        if(beneficiary.send(totalCollected)){\n            state = State.PaidOut;\n        }else{\n            state = State.Failed;\n        }\n\n    }\n\n    function withdraw() public inState(State.Failed){\n        require(amounts[msg.sender] > 0, \"Nothing contributed\");\n        uint contribution = amounts[msg.sender];\n        amounts[msg.sender] = 0;\n\n        if(!(payable(msg.sender)).send(contribution)){\n            amounts[msg.sender] = contribution;\n        }\n    }\n}",
  "sourcePath": "/workspace/contracts/CrowdFunding.sol",
  "compiler": {
    "name": "solc",
    "version": "0.8.0+commit.c7dfd78e.Emscripten.clang"
  },
  "schemaVersion": "3.4.3",
  "updatedAt": "2021-11-12T04:41:54.735Z",
  "networkType": "ethereum",
  "devdoc": {
    "kind": "dev",
    "methods": {},
    "version": 1
  },
  "userdoc": {
    "kind": "user",
    "methods": {},
    "version": 1
  }
}