{
  "contractName": "MultigWallet",
  "abi": [
    {
      "inputs": [
        {
          "internalType": "address[]",
          "name": "_approvers",
          "type": "address[]"
        },
        {
          "internalType": "uint256",
          "name": "_minApprovers",
          "type": "uint256"
        },
        {
          "internalType": "address",
          "name": "_beneficiery",
          "type": "address"
        }
      ],
      "stateMutability": "payable",
      "type": "constructor"
    },
    {
      "inputs": [],
      "name": "approve",
      "outputs": [],
      "stateMutability": "nonpayable",
      "type": "function"
    },
    {
      "inputs": [],
      "name": "reject",
      "outputs": [],
      "stateMutability": "nonpayable",
      "type": "function"
    }
  ],
  "bytecode": "0x608060405260405161098d38038061098d8339818101604052810190610025919061030a565b8251821115610069576040517f08c379a0000000000000000000000000000000000000000000000000000000008152600401610060906103b1565b60405180910390fd5b8160008190555080600160006101000a81548173ffffffffffffffffffffffffffffffffffffffff021916908373ffffffffffffffffffffffffffffffffffffffff16021790555033600260006101000a81548173ffffffffffffffffffffffffffffffffffffffff021916908373ffffffffffffffffffffffffffffffffffffffff16021790555060005b83518110156102415760006003600086848151811061013d577f4e487b7100000000000000000000000000000000000000000000000000000000600052603260045260246000fd5b602002602001015173ffffffffffffffffffffffffffffffffffffffff1673ffffffffffffffffffffffffffffffffffffffff16815260200190815260200160002060006101000a81548160ff0219169083151502179055506001600460008684815181106101d5577f4e487b7100000000000000000000000000000000000000000000000000000000600052603260045260246000fd5b602002602001015173ffffffffffffffffffffffffffffffffffffffff1673ffffffffffffffffffffffffffffffffffffffff16815260200190815260200160002060006101000a81548160ff02191690831515021790555080806102399061047b565b9150506100f5565b50505050610550565b600061025d61025884610402565b6103d1565b9050808382526020820190508285602086028201111561027c57600080fd5b60005b858110156102ac578161029288826102b6565b84526020840193506020830192505060018101905061027f565b5050509392505050565b6000815190506102c581610522565b92915050565b600082601f8301126102dc57600080fd5b81516102ec84826020860161024a565b91505092915050565b60008151905061030481610539565b92915050565b60008060006060848603121561031f57600080fd5b600084015167ffffffffffffffff81111561033957600080fd5b610345868287016102cb565b9350506020610356868287016102f5565b9250506040610367868287016102b6565b9150509250925092565b600061037e60198361042e565b91507f617070726f766572206c656e677468206e6f74206d61746368000000000000006000830152602082019050919050565b600060208201905081810360008301526103ca81610371565b9050919050565b6000604051905081810181811067ffffffffffffffff821117156103f8576103f76104f3565b5b8060405250919050565b600067ffffffffffffffff82111561041d5761041c6104f3565b5b602082029050602081019050919050565b600082825260208201905092915050565b600061044a82610451565b9050919050565b600073ffffffffffffffffffffffffffffffffffffffff82169050919050565b6000819050919050565b600061048682610471565b91507fffffffffffffffffffffffffffffffffffffffffffffffffffffffffffffffff8214156104b9576104b86104c4565b5b600182019050919050565b7f4e487b7100000000000000000000000000000000000000000000000000000000600052601160045260246000fd5b7f4e487b7100000000000000000000000000000000000000000000000000000000600052604160045260246000fd5b61052b8161043f565b811461053657600080fd5b50565b61054281610471565b811461054d57600080fd5b50565b61042e8061055f6000396000f3fe608060405234801561001057600080fd5b50600436106100365760003560e01c806312424e3f1461003b5780634dc415de14610045575b600080fd5b61004361004f565b005b61004d61023e565b005b600460003373ffffffffffffffffffffffffffffffffffffffff1673ffffffffffffffffffffffffffffffffffffffff16815260200190815260200160002060009054906101000a900460ff166100db576040517f08c379a00000000000000000000000000000000000000000000000000000000081526004016100d290610345565b60405180910390fd5b600360003373ffffffffffffffffffffffffffffffffffffffff1673ffffffffffffffffffffffffffffffffffffffff16815260200190815260200160002060009054906101000a900460ff1661019d576001600360003373ffffffffffffffffffffffffffffffffffffffff1673ffffffffffffffffffffffffffffffffffffffff16815260200190815260200160002060006101000a81548160ff0219169083151502179055506005600081548092919061019790610380565b91905055505b600054600554141561023c57600160009054906101000a900473ffffffffffffffffffffffffffffffffffffffff1673ffffffffffffffffffffffffffffffffffffffff166108fc479081150290604051600060405180830381858888f1935050505050600260009054906101000a900473ffffffffffffffffffffffffffffffffffffffff1673ffffffffffffffffffffffffffffffffffffffff16ff5b565b600460003373ffffffffffffffffffffffffffffffffffffffff1673ffffffffffffffffffffffffffffffffffffffff16815260200190815260200160002060009054906101000a900460ff166102ca576040517f08c379a00000000000000000000000000000000000000000000000000000000081526004016102c190610345565b60405180910390fd5b600260009054906101000a900473ffffffffffffffffffffffffffffffffffffffff1673ffffffffffffffffffffffffffffffffffffffff16ff5b6000610312600c83610365565b91507f556e617574686f72697a656400000000000000000000000000000000000000006000830152602082019050919050565b6000602082019050818103600083015261035e81610305565b9050919050565b600082825260208201905092915050565b6000819050919050565b600061038b82610376565b91507fffffffffffffffffffffffffffffffffffffffffffffffffffffffffffffffff8214156103be576103bd6103c9565b5b600182019050919050565b7f4e487b7100000000000000000000000000000000000000000000000000000000600052601160045260246000fdfea26469706673582212203085abcb149953f767477275a40350ddd77d8284ee97666f0a3e1ad2ba3a3aa364736f6c63430008000033",
  "immutableReferences": {},
  "source": "pragma solidity >= 0.6.0;\n//pragma experimental ABIEncoderV2;\n\ncontract MultigWallet{\n    uint minApprovers;\n    address payable beneficiery;\n    address payable owner;\n    \n    mapping (address => bool) approvedBy;\n    mapping (address => bool) isApprover;\n    uint approvalSum;\n    \n    constructor(\n        address[] memory _approvers,\n        uint _minApprovers,\n        address _beneficiery) public payable {\n            \n            require(_minApprovers <= _approvers.length, \"approver length not match\");\n            minApprovers = _minApprovers;\n            beneficiery = payable(_beneficiery);\n            owner = payable(msg.sender);\n            for(uint i = 0; i < _approvers.length; i++){\n                approvedBy[_approvers[i]] = false;\n                isApprover[_approvers[i]] = true;\n            }\n    }\n    \n    function approve() public {\n        require(isApprover[msg.sender], \"Unauthorized\");\n        \n        //check if the approver has approve\n        if(!approvedBy[msg.sender]){\n            approvedBy[msg.sender] = true;\n            approvalSum++;\n        }\n        \n        //send when number of approver is met\n        if(approvalSum == minApprovers){\n            beneficiery.send(address(this).balance);\n            selfdestruct(owner);\n        }\n        \n    }\n    \n    function reject() public {\n        require(isApprover[msg.sender], \"Unauthorized\");\n        selfdestruct(owner);\n    }\n}",
  "sourcePath": "/workspace/contracts/MutiSigWallet.sol",
  "compiler": {
    "name": "solc",
    "version": "0.8.0+commit.c7dfd78e.Emscripten.clang"
  },
  "schemaVersion": "3.4.3",
  "updatedAt": "2021-11-12T04:36:29.301Z",
  "devdoc": {
    "kind": "dev",
    "methods": {},
    "version": 1
  },
  "userdoc": {
    "kind": "user",
    "methods": {},
    "version": 1
  }
}