{
  "contractName": "MyNFTv2",
  "abi": [
    {
      "anonymous": false,
      "inputs": [
        {
          "indexed": true,
          "internalType": "address",
          "name": "owner",
          "type": "address"
        },
        {
          "indexed": true,
          "internalType": "address",
          "name": "approved",
          "type": "address"
        },
        {
          "indexed": true,
          "internalType": "uint256",
          "name": "tokenId",
          "type": "uint256"
        }
      ],
      "name": "Approval",
      "type": "event"
    },
    {
      "anonymous": false,
      "inputs": [
        {
          "indexed": true,
          "internalType": "address",
          "name": "owner",
          "type": "address"
        },
        {
          "indexed": true,
          "internalType": "address",
          "name": "operator",
          "type": "address"
        },
        {
          "indexed": false,
          "internalType": "bool",
          "name": "approved",
          "type": "bool"
        }
      ],
      "name": "ApprovalForAll",
      "type": "event"
    },
    {
      "anonymous": false,
      "inputs": [
        {
          "indexed": true,
          "internalType": "address",
          "name": "previousOwner",
          "type": "address"
        },
        {
          "indexed": true,
          "internalType": "address",
          "name": "newOwner",
          "type": "address"
        }
      ],
      "name": "OwnershipTransferred",
      "type": "event"
    },
    {
      "anonymous": false,
      "inputs": [
        {
          "indexed": true,
          "internalType": "address",
          "name": "from",
          "type": "address"
        },
        {
          "indexed": true,
          "internalType": "address",
          "name": "to",
          "type": "address"
        },
        {
          "indexed": true,
          "internalType": "uint256",
          "name": "tokenId",
          "type": "uint256"
        }
      ],
      "name": "Transfer",
      "type": "event"
    },
    {
      "inputs": [
        {
          "internalType": "address",
          "name": "to",
          "type": "address"
        },
        {
          "internalType": "uint256",
          "name": "tokenId",
          "type": "uint256"
        }
      ],
      "name": "approve",
      "outputs": [],
      "stateMutability": "nonpayable",
      "type": "function"
    },
    {
      "inputs": [
        {
          "internalType": "address",
          "name": "owner",
          "type": "address"
        }
      ],
      "name": "balanceOf",
      "outputs": [
        {
          "internalType": "uint256",
          "name": "",
          "type": "uint256"
        }
      ],
      "stateMutability": "view",
      "type": "function",
      "constant": true
    },
    {
      "inputs": [
        {
          "internalType": "uint256",
          "name": "tokenId",
          "type": "uint256"
        }
      ],
      "name": "getApproved",
      "outputs": [
        {
          "internalType": "address",
          "name": "",
          "type": "address"
        }
      ],
      "stateMutability": "view",
      "type": "function",
      "constant": true
    },
    {
      "inputs": [
        {
          "internalType": "address",
          "name": "owner",
          "type": "address"
        },
        {
          "internalType": "address",
          "name": "operator",
          "type": "address"
        }
      ],
      "name": "isApprovedForAll",
      "outputs": [
        {
          "internalType": "bool",
          "name": "",
          "type": "bool"
        }
      ],
      "stateMutability": "view",
      "type": "function",
      "constant": true
    },
    {
      "inputs": [],
      "name": "name",
      "outputs": [
        {
          "internalType": "string",
          "name": "",
          "type": "string"
        }
      ],
      "stateMutability": "view",
      "type": "function",
      "constant": true
    },
    {
      "inputs": [],
      "name": "owner",
      "outputs": [
        {
          "internalType": "address",
          "name": "",
          "type": "address"
        }
      ],
      "stateMutability": "view",
      "type": "function",
      "constant": true
    },
    {
      "inputs": [
        {
          "internalType": "uint256",
          "name": "tokenId",
          "type": "uint256"
        }
      ],
      "name": "ownerOf",
      "outputs": [
        {
          "internalType": "address",
          "name": "",
          "type": "address"
        }
      ],
      "stateMutability": "view",
      "type": "function",
      "constant": true
    },
    {
      "inputs": [],
      "name": "renounceOwnership",
      "outputs": [],
      "stateMutability": "nonpayable",
      "type": "function"
    },
    {
      "inputs": [
        {
          "internalType": "address",
          "name": "from",
          "type": "address"
        },
        {
          "internalType": "address",
          "name": "to",
          "type": "address"
        },
        {
          "internalType": "uint256",
          "name": "tokenId",
          "type": "uint256"
        }
      ],
      "name": "safeTransferFrom",
      "outputs": [],
      "stateMutability": "nonpayable",
      "type": "function"
    },
    {
      "inputs": [
        {
          "internalType": "address",
          "name": "from",
          "type": "address"
        },
        {
          "internalType": "address",
          "name": "to",
          "type": "address"
        },
        {
          "internalType": "uint256",
          "name": "tokenId",
          "type": "uint256"
        },
        {
          "internalType": "bytes",
          "name": "_data",
          "type": "bytes"
        }
      ],
      "name": "safeTransferFrom",
      "outputs": [],
      "stateMutability": "nonpayable",
      "type": "function"
    },
    {
      "inputs": [
        {
          "internalType": "address",
          "name": "operator",
          "type": "address"
        },
        {
          "internalType": "bool",
          "name": "approved",
          "type": "bool"
        }
      ],
      "name": "setApprovalForAll",
      "outputs": [],
      "stateMutability": "nonpayable",
      "type": "function"
    },
    {
      "inputs": [
        {
          "internalType": "bytes4",
          "name": "interfaceId",
          "type": "bytes4"
        }
      ],
      "name": "supportsInterface",
      "outputs": [
        {
          "internalType": "bool",
          "name": "",
          "type": "bool"
        }
      ],
      "stateMutability": "view",
      "type": "function",
      "constant": true
    },
    {
      "inputs": [],
      "name": "symbol",
      "outputs": [
        {
          "internalType": "string",
          "name": "",
          "type": "string"
        }
      ],
      "stateMutability": "view",
      "type": "function",
      "constant": true
    },
    {
      "inputs": [
        {
          "internalType": "uint256",
          "name": "tokenId",
          "type": "uint256"
        }
      ],
      "name": "tokenURI",
      "outputs": [
        {
          "internalType": "string",
          "name": "",
          "type": "string"
        }
      ],
      "stateMutability": "view",
      "type": "function",
      "constant": true
    },
    {
      "inputs": [
        {
          "internalType": "address",
          "name": "from",
          "type": "address"
        },
        {
          "internalType": "address",
          "name": "to",
          "type": "address"
        },
        {
          "internalType": "uint256",
          "name": "tokenId",
          "type": "uint256"
        }
      ],
      "name": "transferFrom",
      "outputs": [],
      "stateMutability": "nonpayable",
      "type": "function"
    },
    {
      "inputs": [
        {
          "internalType": "address",
          "name": "newOwner",
          "type": "address"
        }
      ],
      "name": "transferOwnership",
      "outputs": [],
      "stateMutability": "nonpayable",
      "type": "function"
    },
    {
      "inputs": [
        {
          "internalType": "string",
          "name": "_name",
          "type": "string"
        },
        {
          "internalType": "string",
          "name": "_symbol",
          "type": "string"
        }
      ],
      "name": "initialize",
      "outputs": [],
      "stateMutability": "nonpayable",
      "type": "function"
    },
    {
      "inputs": [
        {
          "internalType": "address",
          "name": "recipient",
          "type": "address"
        },
        {
          "internalType": "string",
          "name": "cid",
          "type": "string"
        }
      ],
      "name": "mintNFT",
      "outputs": [
        {
          "internalType": "uint256",
          "name": "",
          "type": "uint256"
        }
      ],
      "stateMutability": "nonpayable",
      "type": "function"
    }
  ],
  "bytecode": "0x608060405234801561001057600080fd5b50613c02806100206000396000f3fe608060405234801561001057600080fd5b50600436106101165760003560e01c8063715018a6116100a2578063b88d4fde11610071578063b88d4fde146102cb578063c87b56dd146102e7578063e985e9c514610317578063eacabe1414610347578063f2fde38b1461037757610116565b8063715018a6146102695780638da5cb5b1461027357806395d89b4114610291578063a22cb465146102af57610116565b806323b872dd116100e957806323b872dd146101b557806342842e0e146101d15780634cd88b76146101ed5780636352211e1461020957806370a082311461023957610116565b806301ffc9a71461011b57806306fdde031461014b578063081812fc14610169578063095ea7b314610199575b600080fd5b61013560048036038101906101309190612a85565b610393565b60405161014291906134ba565b60405180910390f35b610153610475565b60405161016091906134d5565b60405180910390f35b610183600480360381019061017e9190612b43565b610507565b6040516101909190613453565b60405180910390f35b6101b360048036038101906101ae9190612a49565b61058c565b005b6101cf60048036038101906101ca91906128ef565b6106a4565b005b6101eb60048036038101906101e691906128ef565b610704565b005b61020760048036038101906102029190612ad7565b610724565b005b610223600480360381019061021e9190612b43565b610819565b6040516102309190613453565b60405180910390f35b610253600480360381019061024e919061288a565b6108cb565b6040516102609190613797565b60405180910390f35b610271610983565b005b61027b610a0b565b6040516102889190613453565b60405180910390f35b610299610a35565b6040516102a691906134d5565b60405180910390f35b6102c960048036038101906102c491906129b9565b610ac7565b005b6102e560048036038101906102e0919061293e565b610c48565b005b61030160048036038101906102fc9190612b43565b610caa565b60405161030e91906134d5565b60405180910390f35b610331600480360381019061032c91906128b3565b610dfc565b60405161033e91906134ba565b60405180910390f35b610361600480360381019061035c91906129f5565b610e90565b60405161036e9190613797565b60405180910390f35b610391600480360381019061038c919061288a565b61106e565b005b60007f80ac58cd000000000000000000000000000000000000000000000000000000007bffffffffffffffffffffffffffffffffffffffffffffffffffffffff1916827bffffffffffffffffffffffffffffffffffffffffffffffffffffffff1916148061045e57507f5b5e139f000000000000000000000000000000000000000000000000000000007bffffffffffffffffffffffffffffffffffffffffffffffffffffffff1916827bffffffffffffffffffffffffffffffffffffffffffffffffffffffff1916145b8061046e575061046d82611166565b5b9050919050565b606060658054610484906139f7565b80601f01602080910402602001604051908101604052809291908181526020018280546104b0906139f7565b80156104fd5780601f106104d2576101008083540402835291602001916104fd565b820191906000526020600020905b8154815290600101906020018083116104e057829003601f168201915b5050505050905090565b6000610512826111d0565b610551576040517f08c379a0000000000000000000000000000000000000000000000000000000008152600401610548906136b7565b60405180910390fd5b6069600083815260200190815260200160002060009054906101000a900473ffffffffffffffffffffffffffffffffffffffff169050919050565b600061059782610819565b90508073ffffffffffffffffffffffffffffffffffffffff168373ffffffffffffffffffffffffffffffffffffffff161415610608576040517f08c379a00000000000000000000000000000000000000000000000000000000081526004016105ff90613737565b60405180910390fd5b8073ffffffffffffffffffffffffffffffffffffffff1661062761123c565b73ffffffffffffffffffffffffffffffffffffffff16148061065657506106558161065061123c565b610dfc565b5b610695576040517f08c379a000000000000000000000000000000000000000000000000000000000815260040161068c906135d7565b60405180910390fd5b61069f8383611244565b505050565b6106b56106af61123c565b826112fd565b6106f4576040517f08c379a00000000000000000000000000000000000000000000000000000000081526004016106eb90613757565b60405180910390fd5b6106ff8383836113db565b505050565b61071f83838360405180602001604052806000815250610c48565b505050565b600060019054906101000a900460ff168061074a575060008054906101000a900460ff16155b610789576040517f08c379a000000000000000000000000000000000000000000000000000000000815260040161078090613657565b60405180910390fd5b60008060019054906101000a900460ff1615905080156107d9576001600060016101000a81548160ff02191690831515021790555060016000806101000a81548160ff0219169083151502179055505b6107e1611637565b6107eb8383611720565b6107f3611815565b80156108145760008060016101000a81548160ff0219169083151502179055505b505050565b6000806067600084815260200190815260200160002060009054906101000a900473ffffffffffffffffffffffffffffffffffffffff169050600073ffffffffffffffffffffffffffffffffffffffff168173ffffffffffffffffffffffffffffffffffffffff1614156108c2576040517f08c379a00000000000000000000000000000000000000000000000000000000081526004016108b990613617565b60405180910390fd5b80915050919050565b60008073ffffffffffffffffffffffffffffffffffffffff168273ffffffffffffffffffffffffffffffffffffffff16141561093c576040517f08c379a0000000000000000000000000000000000000000000000000000000008152600401610933906135f7565b60405180910390fd5b606860008373ffffffffffffffffffffffffffffffffffffffff1673ffffffffffffffffffffffffffffffffffffffff168152602001908152602001600020549050919050565b61098b61123c565b73ffffffffffffffffffffffffffffffffffffffff166109a9610a0b565b73ffffffffffffffffffffffffffffffffffffffff16146109ff576040517f08c379a00000000000000000000000000000000000000000000000000000000081526004016109f6906136d7565b60405180910390fd5b610a096000611906565b565b600060c960009054906101000a900473ffffffffffffffffffffffffffffffffffffffff16905090565b606060668054610a44906139f7565b80601f0160208091040260200160405190810160405280929190818152602001828054610a70906139f7565b8015610abd5780601f10610a9257610100808354040283529160200191610abd565b820191906000526020600020905b815481529060010190602001808311610aa057829003601f168201915b5050505050905090565b610acf61123c565b73ffffffffffffffffffffffffffffffffffffffff168273ffffffffffffffffffffffffffffffffffffffff161415610b3d576040517f08c379a0000000000000000000000000000000000000000000000000000000008152600401610b3490613597565b60405180910390fd5b80606a6000610b4a61123c565b73ffffffffffffffffffffffffffffffffffffffff1673ffffffffffffffffffffffffffffffffffffffff16815260200190815260200160002060008473ffffffffffffffffffffffffffffffffffffffff1673ffffffffffffffffffffffffffffffffffffffff16815260200190815260200160002060006101000a81548160ff0219169083151502179055508173ffffffffffffffffffffffffffffffffffffffff16610bf761123c565b73ffffffffffffffffffffffffffffffffffffffff167f17307eab39ab6107e8899845ad3d59bd9653f200f220920489ca2b5937696c3183604051610c3c91906134ba565b60405180910390a35050565b610c59610c5361123c565b836112fd565b610c98576040517f08c379a0000000000000000000000000000000000000000000000000000000008152600401610c8f90613757565b60405180910390fd5b610ca4848484846119cc565b50505050565b6060610cb5826111d0565b610cf4576040517f08c379a0000000000000000000000000000000000000000000000000000000008152600401610ceb90613697565b60405180910390fd5b6000609760008481526020019081526020016000208054610d14906139f7565b80601f0160208091040260200160405190810160405280929190818152602001828054610d40906139f7565b8015610d8d5780601f10610d6257610100808354040283529160200191610d8d565b820191906000526020600020905b815481529060010190602001808311610d7057829003601f168201915b505050505090506000610d9e611a28565b9050600081511415610db4578192505050610df7565b600082511115610de9578082604051602001610dd192919061340d565b60405160208183030381529060405292505050610df7565b610df284611a3f565b925050505b919050565b6000606a60008473ffffffffffffffffffffffffffffffffffffffff1673ffffffffffffffffffffffffffffffffffffffff16815260200190815260200160002060008373ffffffffffffffffffffffffffffffffffffffff1673ffffffffffffffffffffffffffffffffffffffff16815260200190815260200160002060009054906101000a900460ff16905092915050565b6000610e9a61123c565b73ffffffffffffffffffffffffffffffffffffffff16610eb8610a0b565b73ffffffffffffffffffffffffffffffffffffffff1614610f0e576040517f08c379a0000000000000000000000000000000000000000000000000000000008152600401610f05906136d7565b60405180910390fd5b610f4d6040518060400160405280600481526020017f687474700000000000000000000000000000000000000000000000000000000081525083611ae6565b15610f8d576040517f08c379a0000000000000000000000000000000000000000000000000000000008152600401610f8490613557565b60405180910390fd5b60fc82604051610f9d91906133f6565b908152602001604051809103902060009054906101000a900460ff1615610ff9576040517f08c379a0000000000000000000000000000000000000000000000000000000008152600401610ff090613777565b60405180910390fd5b600160fc8360405161100b91906133f6565b908152602001604051809103902060006101000a81548160ff02191690831515021790555061103a60fb611c46565b600061104660fb611c5c565b90506110528482611c6a565b6110648161105f85611e38565b611e61565b8091505092915050565b61107661123c565b73ffffffffffffffffffffffffffffffffffffffff16611094610a0b565b73ffffffffffffffffffffffffffffffffffffffff16146110ea576040517f08c379a00000000000000000000000000000000000000000000000000000000081526004016110e1906136d7565b60405180910390fd5b600073ffffffffffffffffffffffffffffffffffffffff168173ffffffffffffffffffffffffffffffffffffffff16141561115a576040517f08c379a000000000000000000000000000000000000000000000000000000000815260040161115190613517565b60405180910390fd5b61116381611906565b50565b60007f01ffc9a7000000000000000000000000000000000000000000000000000000007bffffffffffffffffffffffffffffffffffffffffffffffffffffffff1916827bffffffffffffffffffffffffffffffffffffffffffffffffffffffff1916149050919050565b60008073ffffffffffffffffffffffffffffffffffffffff166067600084815260200190815260200160002060009054906101000a900473ffffffffffffffffffffffffffffffffffffffff1673ffffffffffffffffffffffffffffffffffffffff1614159050919050565b600033905090565b816069600083815260200190815260200160002060006101000a81548173ffffffffffffffffffffffffffffffffffffffff021916908373ffffffffffffffffffffffffffffffffffffffff160217905550808273ffffffffffffffffffffffffffffffffffffffff166112b783610819565b73ffffffffffffffffffffffffffffffffffffffff167f8c5be1e5ebec7d5bd14f71427d1e84f3dd0314c0f7b2291e5b200ac8c7c3b92560405160405180910390a45050565b6000611308826111d0565b611347576040517f08c379a000000000000000000000000000000000000000000000000000000000815260040161133e906135b7565b60405180910390fd5b600061135283610819565b90508073ffffffffffffffffffffffffffffffffffffffff168473ffffffffffffffffffffffffffffffffffffffff1614806113c157508373ffffffffffffffffffffffffffffffffffffffff166113a984610507565b73ffffffffffffffffffffffffffffffffffffffff16145b806113d257506113d18185610dfc565b5b91505092915050565b8273ffffffffffffffffffffffffffffffffffffffff166113fb82610819565b73ffffffffffffffffffffffffffffffffffffffff1614611451576040517f08c379a0000000000000000000000000000000000000000000000000000000008152600401611448906136f7565b60405180910390fd5b600073ffffffffffffffffffffffffffffffffffffffff168273ffffffffffffffffffffffffffffffffffffffff1614156114c1576040517f08c379a00000000000000000000000000000000000000000000000000000000081526004016114b890613577565b60405180910390fd5b6114cc838383611ed5565b6114d7600082611244565b6001606860008573ffffffffffffffffffffffffffffffffffffffff1673ffffffffffffffffffffffffffffffffffffffff1681526020019081526020016000206000828254611527919061390d565b925050819055506001606860008473ffffffffffffffffffffffffffffffffffffffff1673ffffffffffffffffffffffffffffffffffffffff168152602001908152602001600020600082825461157e9190613886565b92505081905550816067600083815260200190815260200160002060006101000a81548173ffffffffffffffffffffffffffffffffffffffff021916908373ffffffffffffffffffffffffffffffffffffffff160217905550808273ffffffffffffffffffffffffffffffffffffffff168473ffffffffffffffffffffffffffffffffffffffff167fddf252ad1be2c89b69c2b068fc378daa952ba7f163c4a11628f55a4df523b3ef60405160405180910390a4505050565b600060019054906101000a900460ff168061165d575060008054906101000a900460ff16155b61169c576040517f08c379a000000000000000000000000000000000000000000000000000000000815260040161169390613657565b60405180910390fd5b60008060019054906101000a900460ff1615905080156116ec576001600060016101000a81548160ff02191690831515021790555060016000806101000a81548160ff0219169083151502179055505b6116f4611eda565b6116fc611fb3565b801561171d5760008060016101000a81548160ff0219169083151502179055505b50565b600060019054906101000a900460ff1680611746575060008054906101000a900460ff16155b611785576040517f08c379a000000000000000000000000000000000000000000000000000000000815260040161177c90613657565b60405180910390fd5b60008060019054906101000a900460ff1615905080156117d5576001600060016101000a81548160ff02191690831515021790555060016000806101000a81548160ff0219169083151502179055505b6117dd611eda565b6117e561209c565b6117ef8383612175565b80156118105760008060016101000a81548160ff0219169083151502179055505b505050565b600060019054906101000a900460ff168061183b575060008054906101000a900460ff16155b61187a576040517f08c379a000000000000000000000000000000000000000000000000000000000815260040161187190613657565b60405180910390fd5b60008060019054906101000a900460ff1615905080156118ca576001600060016101000a81548160ff02191690831515021790555060016000806101000a81548160ff0219169083151502179055505b6118d2611eda565b6118da61209c565b6118e261227e565b80156119035760008060016101000a81548160ff0219169083151502179055505b50565b600060c960009054906101000a900473ffffffffffffffffffffffffffffffffffffffff1690508160c960006101000a81548173ffffffffffffffffffffffffffffffffffffffff021916908373ffffffffffffffffffffffffffffffffffffffff1602179055508173ffffffffffffffffffffffffffffffffffffffff168173ffffffffffffffffffffffffffffffffffffffff167f8be0079c531659141344cd1fd0a4f28419497f9722a3daafe3b4186f6b6457e060405160405180910390a35050565b6119d78484846113db565b6119e384848484612357565b611a22576040517f08c379a0000000000000000000000000000000000000000000000000000000008152600401611a19906134f7565b60405180910390fd5b50505050565b606060405180602001604052806000815250905090565b6060611a4a826111d0565b611a89576040517f08c379a0000000000000000000000000000000000000000000000000000000008152600401611a8090613717565b60405180910390fd5b6000611a93611a28565b90506000815111611ab35760405180602001604052806000815250611ade565b80611abd846124ee565b604051602001611ace92919061340d565b6040516020818303038152906040525b915050919050565b60008083905060008390506000805b83518351611b03919061390d565b811015611c395760006001905060005b8551811015611c1457858181518110611b55577f4e487b7100000000000000000000000000000000000000000000000000000000600052603260045260246000fd5b602001015160f81c60f81b7effffffffffffffffffffffffffffffffffffffffffffffffffffffffffffff1916858285611b8f9190613886565b81518110611bc6577f4e487b7100000000000000000000000000000000000000000000000000000000600052603260045260246000fd5b602001015160f81c60f81b7effffffffffffffffffffffffffffffffffffffffffffffffffffffffffffff191614611c015760009150611c14565b8080611c0c90613a29565b915050611b13565b508015611c25576001925050611c39565b508080611c3190613a29565b915050611af5565b5080935050505092915050565b6001816000016000828254019250508190555050565b600081600001549050919050565b600073ffffffffffffffffffffffffffffffffffffffff168273ffffffffffffffffffffffffffffffffffffffff161415611cda576040517f08c379a0000000000000000000000000000000000000000000000000000000008152600401611cd190613677565b60405180910390fd5b611ce3816111d0565b15611d23576040517f08c379a0000000000000000000000000000000000000000000000000000000008152600401611d1a90613537565b60405180910390fd5b611d2f60008383611ed5565b6001606860008473ffffffffffffffffffffffffffffffffffffffff1673ffffffffffffffffffffffffffffffffffffffff1681526020019081526020016000206000828254611d7f9190613886565b92505081905550816067600083815260200190815260200160002060006101000a81548173ffffffffffffffffffffffffffffffffffffffff021916908373ffffffffffffffffffffffffffffffffffffffff160217905550808273ffffffffffffffffffffffffffffffffffffffff16600073ffffffffffffffffffffffffffffffffffffffff167fddf252ad1be2c89b69c2b068fc378daa952ba7f163c4a11628f55a4df523b3ef60405160405180910390a45050565b606081604051602001611e4b9190613431565b6040516020818303038152906040529050919050565b611e6a826111d0565b611ea9576040517f08c379a0000000000000000000000000000000000000000000000000000000008152600401611ea090613637565b60405180910390fd5b80609760008481526020019081526020016000209080519060200190611ed09291906126ae565b505050565b505050565b600060019054906101000a900460ff1680611f00575060008054906101000a900460ff16155b611f3f576040517f08c379a0000000000000000000000000000000000000000000000000000000008152600401611f3690613657565b60405180910390fd5b60008060019054906101000a900460ff161590508015611f8f576001600060016101000a81548160ff02191690831515021790555060016000806101000a81548160ff0219169083151502179055505b8015611fb05760008060016101000a81548160ff0219169083151502179055505b50565b600060019054906101000a900460ff1680611fd9575060008054906101000a900460ff16155b612018576040517f08c379a000000000000000000000000000000000000000000000000000000000815260040161200f90613657565b60405180910390fd5b60008060019054906101000a900460ff161590508015612068576001600060016101000a81548160ff02191690831515021790555060016000806101000a81548160ff0219169083151502179055505b61207861207361123c565b611906565b80156120995760008060016101000a81548160ff0219169083151502179055505b50565b600060019054906101000a900460ff16806120c2575060008054906101000a900460ff16155b612101576040517f08c379a00000000000000000000000000000000000000000000000000000000081526004016120f890613657565b60405180910390fd5b60008060019054906101000a900460ff161590508015612151576001600060016101000a81548160ff02191690831515021790555060016000806101000a81548160ff0219169083151502179055505b80156121725760008060016101000a81548160ff0219169083151502179055505b50565b600060019054906101000a900460ff168061219b575060008054906101000a900460ff16155b6121da576040517f08c379a00000000000000000000000000000000000000000000000000000000081526004016121d190613657565b60405180910390fd5b60008060019054906101000a900460ff16159050801561222a576001600060016101000a81548160ff02191690831515021790555060016000806101000a81548160ff0219169083151502179055505b82606590805190602001906122409291906126ae565b5081606690805190602001906122579291906126ae565b5080156122795760008060016101000a81548160ff0219169083151502179055505b505050565b600060019054906101000a900460ff16806122a4575060008054906101000a900460ff16155b6122e3576040517f08c379a00000000000000000000000000000000000000000000000000000000081526004016122da90613657565b60405180910390fd5b60008060019054906101000a900460ff161590508015612333576001600060016101000a81548160ff02191690831515021790555060016000806101000a81548160ff0219169083151502179055505b80156123545760008060016101000a81548160ff0219169083151502179055505b50565b60006123788473ffffffffffffffffffffffffffffffffffffffff1661269b565b156124e1578373ffffffffffffffffffffffffffffffffffffffff1663150b7a026123a161123c565b8786866040518563ffffffff1660e01b81526004016123c3949392919061346e565b602060405180830381600087803b1580156123dd57600080fd5b505af192505050801561240e57506040513d601f19601f8201168201806040525081019061240b9190612aae565b60015b612491573d806000811461243e576040519150601f19603f3d011682016040523d82523d6000602084013e612443565b606091505b50600081511415612489576040517f08c379a0000000000000000000000000000000000000000000000000000000008152600401612480906134f7565b60405180910390fd5b805181602001fd5b63150b7a0260e01b7bffffffffffffffffffffffffffffffffffffffffffffffffffffffff1916817bffffffffffffffffffffffffffffffffffffffffffffffffffffffff1916149150506124e6565b600190505b949350505050565b60606000821415612536576040518060400160405280600181526020017f30000000000000000000000000000000000000000000000000000000000000008152509050612696565b600082905060005b6000821461256857808061255190613a29565b915050600a8261256191906138dc565b915061253e565b60008167ffffffffffffffff8111156125aa577f4e487b7100000000000000000000000000000000000000000000000000000000600052604160045260246000fd5b6040519080825280601f01601f1916602001820160405280156125dc5781602001600182028036833780820191505090505b5090505b6000851461268f576001826125f5919061390d565b9150600a856126049190613a72565b60306126109190613886565b60f81b81838151811061264c577f4e487b7100000000000000000000000000000000000000000000000000000000600052603260045260246000fd5b60200101907effffffffffffffffffffffffffffffffffffffffffffffffffffffffffffff1916908160001a905350600a8561268891906138dc565b94506125e0565b8093505050505b919050565b600080823b905060008111915050919050565b8280546126ba906139f7565b90600052602060002090601f0160209004810192826126dc5760008555612723565b82601f106126f557805160ff1916838001178555612723565b82800160010185558215612723579182015b82811115612722578251825591602001919060010190612707565b5b5090506127309190612734565b5090565b5b8082111561274d576000816000905550600101612735565b5090565b600061276461275f846137e3565b6137b2565b90508281526020810184848401111561277c57600080fd5b6127878482856139b5565b509392505050565b60006127a261279d84613813565b6137b2565b9050828152602081018484840111156127ba57600080fd5b6127c58482856139b5565b509392505050565b6000813590506127dc81613b70565b92915050565b6000813590506127f181613b87565b92915050565b60008135905061280681613b9e565b92915050565b60008151905061281b81613b9e565b92915050565b600082601f83011261283257600080fd5b8135612842848260208601612751565b91505092915050565b600082601f83011261285c57600080fd5b813561286c84826020860161278f565b91505092915050565b60008135905061288481613bb5565b92915050565b60006020828403121561289c57600080fd5b60006128aa848285016127cd565b91505092915050565b600080604083850312156128c657600080fd5b60006128d4858286016127cd565b92505060206128e5858286016127cd565b9150509250929050565b60008060006060848603121561290457600080fd5b6000612912868287016127cd565b9350506020612923868287016127cd565b925050604061293486828701612875565b9150509250925092565b6000806000806080858703121561295457600080fd5b6000612962878288016127cd565b9450506020612973878288016127cd565b935050604061298487828801612875565b925050606085013567ffffffffffffffff8111156129a157600080fd5b6129ad87828801612821565b91505092959194509250565b600080604083850312156129cc57600080fd5b60006129da858286016127cd565b92505060206129eb858286016127e2565b9150509250929050565b60008060408385031215612a0857600080fd5b6000612a16858286016127cd565b925050602083013567ffffffffffffffff811115612a3357600080fd5b612a3f8582860161284b565b9150509250929050565b60008060408385031215612a5c57600080fd5b6000612a6a858286016127cd565b9250506020612a7b85828601612875565b9150509250929050565b600060208284031215612a9757600080fd5b6000612aa5848285016127f7565b91505092915050565b600060208284031215612ac057600080fd5b6000612ace8482850161280c565b91505092915050565b60008060408385031215612aea57600080fd5b600083013567ffffffffffffffff811115612b0457600080fd5b612b108582860161284b565b925050602083013567ffffffffffffffff811115612b2d57600080fd5b612b398582860161284b565b9150509250929050565b600060208284031215612b5557600080fd5b6000612b6384828501612875565b91505092915050565b612b7581613941565b82525050565b612b8481613953565b82525050565b6000612b9582613843565b612b9f8185613859565b9350612baf8185602086016139c4565b612bb881613b5f565b840191505092915050565b6000612bce8261384e565b612bd8818561386a565b9350612be88185602086016139c4565b612bf181613b5f565b840191505092915050565b6000612c078261384e565b612c11818561387b565b9350612c218185602086016139c4565b80840191505092915050565b6000612c3a60328361386a565b91507f4552433732313a207472616e7366657220746f206e6f6e20455243373231526560008301527f63656976657220696d706c656d656e74657200000000000000000000000000006020830152604082019050919050565b6000612ca060268361386a565b91507f4f776e61626c653a206e6577206f776e657220697320746865207a65726f206160008301527f64647265737300000000000000000000000000000000000000000000000000006020830152604082019050919050565b6000612d06601c8361386a565b91507f4552433732313a20746f6b656e20616c7265616479206d696e746564000000006000830152602082019050919050565b6000612d4660118361386a565b91507f496e76616c696420746f6b656e205572690000000000000000000000000000006000830152602082019050919050565b6000612d8660248361386a565b91507f4552433732313a207472616e7366657220746f20746865207a65726f2061646460008301527f72657373000000000000000000000000000000000000000000000000000000006020830152604082019050919050565b6000612dec60198361386a565b91507f4552433732313a20617070726f766520746f2063616c6c6572000000000000006000830152602082019050919050565b6000612e2c602c8361386a565b91507f4552433732313a206f70657261746f7220717565727920666f72206e6f6e657860008301527f697374656e7420746f6b656e00000000000000000000000000000000000000006020830152604082019050919050565b6000612e9260388361386a565b91507f4552433732313a20617070726f76652063616c6c6572206973206e6f74206f7760008301527f6e6572206e6f7220617070726f76656420666f7220616c6c00000000000000006020830152604082019050919050565b6000612ef860158361387b565b91507f68747470733a2f2f697066732e696f2f697066732f00000000000000000000006000830152601582019050919050565b6000612f38602a8361386a565b91507f4552433732313a2062616c616e636520717565727920666f7220746865207a6560008301527f726f2061646472657373000000000000000000000000000000000000000000006020830152604082019050919050565b6000612f9e60298361386a565b91507f4552433732313a206f776e657220717565727920666f72206e6f6e657869737460008301527f656e7420746f6b656e00000000000000000000000000000000000000000000006020830152604082019050919050565b6000613004602e8361386a565b91507f45524337323155524953746f726167653a2055524920736574206f66206e6f6e60008301527f6578697374656e7420746f6b656e0000000000000000000000000000000000006020830152604082019050919050565b600061306a602e8361386a565b91507f496e697469616c697a61626c653a20636f6e747261637420697320616c72656160008301527f647920696e697469616c697a65640000000000000000000000000000000000006020830152604082019050919050565b60006130d060208361386a565b91507f4552433732313a206d696e7420746f20746865207a65726f20616464726573736000830152602082019050919050565b600061311060318361386a565b91507f45524337323155524953746f726167653a2055524920717565727920666f722060008301527f6e6f6e6578697374656e7420746f6b656e0000000000000000000000000000006020830152604082019050919050565b6000613176602c8361386a565b91507f4552433732313a20617070726f76656420717565727920666f72206e6f6e657860008301527f697374656e7420746f6b656e00000000000000000000000000000000000000006020830152604082019050919050565b60006131dc60208361386a565b91507f4f776e61626c653a2063616c6c6572206973206e6f7420746865206f776e65726000830152602082019050919050565b600061321c60298361386a565b91507f4552433732313a207472616e73666572206f6620746f6b656e2074686174206960008301527f73206e6f74206f776e00000000000000000000000000000000000000000000006020830152604082019050919050565b6000613282602f8361386a565b91507f4552433732314d657461646174613a2055524920717565727920666f72206e6f60008301527f6e6578697374656e7420746f6b656e00000000000000000000000000000000006020830152604082019050919050565b60006132e860218361386a565b91507f4552433732313a20617070726f76616c20746f2063757272656e74206f776e6560008301527f72000000000000000000000000000000000000000000000000000000000000006020830152604082019050919050565b600061334e60318361386a565b91507f4552433732313a207472616e736665722063616c6c6572206973206e6f74206f60008301527f776e6572206e6f7220617070726f7665640000000000000000000000000000006020830152604082019050919050565b60006133b460078361386a565b91507f636964206f776e000000000000000000000000000000000000000000000000006000830152602082019050919050565b6133f0816139ab565b82525050565b60006134028284612bfc565b915081905092915050565b60006134198285612bfc565b91506134258284612bfc565b91508190509392505050565b600061343c82612eeb565b91506134488284612bfc565b915081905092915050565b60006020820190506134686000830184612b6c565b92915050565b60006080820190506134836000830187612b6c565b6134906020830186612b6c565b61349d60408301856133e7565b81810360608301526134af8184612b8a565b905095945050505050565b60006020820190506134cf6000830184612b7b565b92915050565b600060208201905081810360008301526134ef8184612bc3565b905092915050565b6000602082019050818103600083015261351081612c2d565b9050919050565b6000602082019050818103600083015261353081612c93565b9050919050565b6000602082019050818103600083015261355081612cf9565b9050919050565b6000602082019050818103600083015261357081612d39565b9050919050565b6000602082019050818103600083015261359081612d79565b9050919050565b600060208201905081810360008301526135b081612ddf565b9050919050565b600060208201905081810360008301526135d081612e1f565b9050919050565b600060208201905081810360008301526135f081612e85565b9050919050565b6000602082019050818103600083015261361081612f2b565b9050919050565b6000602082019050818103600083015261363081612f91565b9050919050565b6000602082019050818103600083015261365081612ff7565b9050919050565b600060208201905081810360008301526136708161305d565b9050919050565b60006020820190508181036000830152613690816130c3565b9050919050565b600060208201905081810360008301526136b081613103565b9050919050565b600060208201905081810360008301526136d081613169565b9050919050565b600060208201905081810360008301526136f0816131cf565b9050919050565b600060208201905081810360008301526137108161320f565b9050919050565b6000602082019050818103600083015261373081613275565b9050919050565b60006020820190508181036000830152613750816132db565b9050919050565b6000602082019050818103600083015261377081613341565b9050919050565b60006020820190508181036000830152613790816133a7565b9050919050565b60006020820190506137ac60008301846133e7565b92915050565b6000604051905081810181811067ffffffffffffffff821117156137d9576137d8613b30565b5b8060405250919050565b600067ffffffffffffffff8211156137fe576137fd613b30565b5b601f19601f8301169050602081019050919050565b600067ffffffffffffffff82111561382e5761382d613b30565b5b601f19601f8301169050602081019050919050565b600081519050919050565b600081519050919050565b600082825260208201905092915050565b600082825260208201905092915050565b600081905092915050565b6000613891826139ab565b915061389c836139ab565b9250827fffffffffffffffffffffffffffffffffffffffffffffffffffffffffffffffff038211156138d1576138d0613aa3565b5b828201905092915050565b60006138e7826139ab565b91506138f2836139ab565b92508261390257613901613ad2565b5b828204905092915050565b6000613918826139ab565b9150613923836139ab565b92508282101561393657613935613aa3565b5b828203905092915050565b600061394c8261398b565b9050919050565b60008115159050919050565b60007fffffffff0000000000000000000000000000000000000000000000000000000082169050919050565b600073ffffffffffffffffffffffffffffffffffffffff82169050919050565b6000819050919050565b82818337600083830152505050565b60005b838110156139e25780820151818401526020810190506139c7565b838111156139f1576000848401525b50505050565b60006002820490506001821680613a0f57607f821691505b60208210811415613a2357613a22613b01565b5b50919050565b6000613a34826139ab565b91507fffffffffffffffffffffffffffffffffffffffffffffffffffffffffffffffff821415613a6757613a66613aa3565b5b600182019050919050565b6000613a7d826139ab565b9150613a88836139ab565b925082613a9857613a97613ad2565b5b828206905092915050565b7f4e487b7100000000000000000000000000000000000000000000000000000000600052601160045260246000fd5b7f4e487b7100000000000000000000000000000000000000000000000000000000600052601260045260246000fd5b7f4e487b7100000000000000000000000000000000000000000000000000000000600052602260045260246000fd5b7f4e487b7100000000000000000000000000000000000000000000000000000000600052604160045260246000fd5b6000601f19601f8301169050919050565b613b7981613941565b8114613b8457600080fd5b50565b613b9081613953565b8114613b9b57600080fd5b50565b613ba78161395f565b8114613bb257600080fd5b50565b613bbe816139ab565b8114613bc957600080fd5b5056fea26469706673582212201513a699b598fa59c43f83c7dfcb25ad39ebe929a4008521f8d3de0d0a81cb0364736f6c63430008000033",
  "immutableReferences": {},
  "source": "pragma solidity ^0.8.0;\n\nimport \"@openzeppelin/contracts/token/ERC721/ERC721.sol\";\nimport \"@openzeppelin/contracts/utils/Counters.sol\";\nimport \"@openzeppelin/contracts-upgradeable/proxy/utils/Initializable.sol\";\nimport \"@openzeppelin/contracts-upgradeable/access/OwnableUpgradeable.sol\";\nimport \"@openzeppelin/contracts-upgradeable/token/ERC721/extensions/ERC721URIStorageUpgradeable.sol\";\n\n\ncontract MyNFTv2 is Initializable, ERC721URIStorageUpgradeable, OwnableUpgradeable {\n    using Counters for Counters.Counter;\n    Counters.Counter private _tokenIds;\n    mapping(string => bool) private _hashes;\n\n\n\n    function initialize(string memory _name, string memory _symbol) public initializer {\n        __Ownable_init();\n      __ERC721_init(_name, _symbol);\n      __ERC721URIStorage_init();\n    }\n\n    function mintNFT(address recipient, string memory cid)\n        public onlyOwner returns(uint256)\n    {\n        require(!contains(\"http\", cid), \"Invalid token Uri\");\n        require(!_hashes[cid], \"cid own\");\n\n         _hashes[cid] = true;\n        _tokenIds.increment();\n        uint256 newItemId = _tokenIds.current();\n        _mint(recipient, newItemId);\n        _setTokenURI(newItemId, generateTokenUri(cid));\n\n        return newItemId;\n    }\n\n    function generateTokenUri(string memory cid) internal pure returns (string memory){\n        return string(abi.encodePacked(\"https://ipfs.io/ipfs/\", cid));\n    }\n\n    function contains (string memory what, string memory where) pure internal returns (bool){\n        bytes memory whatBytes = bytes (what);\n        bytes memory whereBytes = bytes (where);\n\n        bool found = false;\n        for (uint i = 0; i < whereBytes.length - whatBytes.length; i++) {\n            bool flag = true;\n            for (uint j = 0; j < whatBytes.length; j++)\n                if (whereBytes [i + j] != whatBytes [j]) {\n                    flag = false;\n                    break;\n                }\n            if (flag) {\n                found = true;\n                break;\n            }\n        }\n        return found;\n    }\n}\n",
  "sourcePath": "/workspace/contracts/MyNFTv2.sol",
  "compiler": {
    "name": "solc",
    "version": "0.8.0+commit.c7dfd78e.Emscripten.clang"
  },
  "schemaVersion": "3.4.3",
  "updatedAt": "2021-11-12T04:42:42.996Z",
  "networkType": "ethereum",
  "devdoc": {
    "kind": "dev",
    "methods": {
      "approve(address,uint256)": {
        "details": "See {IERC721-approve}."
      },
      "balanceOf(address)": {
        "details": "See {IERC721-balanceOf}."
      },
      "getApproved(uint256)": {
        "details": "See {IERC721-getApproved}."
      },
      "isApprovedForAll(address,address)": {
        "details": "See {IERC721-isApprovedForAll}."
      },
      "name()": {
        "details": "See {IERC721Metadata-name}."
      },
      "owner()": {
        "details": "Returns the address of the current owner."
      },
      "ownerOf(uint256)": {
        "details": "See {IERC721-ownerOf}."
      },
      "renounceOwnership()": {
        "details": "Leaves the contract without owner. It will not be possible to call `onlyOwner` functions anymore. Can only be called by the current owner. NOTE: Renouncing ownership will leave the contract without an owner, thereby removing any functionality that is only available to the owner."
      },
      "safeTransferFrom(address,address,uint256)": {
        "details": "See {IERC721-safeTransferFrom}."
      },
      "safeTransferFrom(address,address,uint256,bytes)": {
        "details": "See {IERC721-safeTransferFrom}."
      },
      "setApprovalForAll(address,bool)": {
        "details": "See {IERC721-setApprovalForAll}."
      },
      "supportsInterface(bytes4)": {
        "details": "See {IERC165-supportsInterface}."
      },
      "symbol()": {
        "details": "See {IERC721Metadata-symbol}."
      },
      "tokenURI(uint256)": {
        "details": "See {IERC721Metadata-tokenURI}."
      },
      "transferFrom(address,address,uint256)": {
        "details": "See {IERC721-transferFrom}."
      },
      "transferOwnership(address)": {
        "details": "Transfers ownership of the contract to a new account (`newOwner`). Can only be called by the current owner."
      }
    },
    "version": 1
  },
  "userdoc": {
    "kind": "user",
    "methods": {},
    "version": 1
  }
}