{
  "contractName": "MyNFT",
  "abi": [
    {
      "anonymous": false,
      "inputs": [
        {
          "indexed": true,
          "internalType": "address",
          "name": "owner",
          "type": "address"
        },
        {
          "indexed": true,
          "internalType": "address",
          "name": "approved",
          "type": "address"
        },
        {
          "indexed": true,
          "internalType": "uint256",
          "name": "tokenId",
          "type": "uint256"
        }
      ],
      "name": "Approval",
      "type": "event"
    },
    {
      "anonymous": false,
      "inputs": [
        {
          "indexed": true,
          "internalType": "address",
          "name": "owner",
          "type": "address"
        },
        {
          "indexed": true,
          "internalType": "address",
          "name": "operator",
          "type": "address"
        },
        {
          "indexed": false,
          "internalType": "bool",
          "name": "approved",
          "type": "bool"
        }
      ],
      "name": "ApprovalForAll",
      "type": "event"
    },
    {
      "anonymous": false,
      "inputs": [
        {
          "indexed": true,
          "internalType": "address",
          "name": "previousOwner",
          "type": "address"
        },
        {
          "indexed": true,
          "internalType": "address",
          "name": "newOwner",
          "type": "address"
        }
      ],
      "name": "OwnershipTransferred",
      "type": "event"
    },
    {
      "anonymous": false,
      "inputs": [
        {
          "indexed": true,
          "internalType": "address",
          "name": "from",
          "type": "address"
        },
        {
          "indexed": true,
          "internalType": "address",
          "name": "to",
          "type": "address"
        },
        {
          "indexed": true,
          "internalType": "uint256",
          "name": "tokenId",
          "type": "uint256"
        }
      ],
      "name": "Transfer",
      "type": "event"
    },
    {
      "inputs": [
        {
          "internalType": "address",
          "name": "to",
          "type": "address"
        },
        {
          "internalType": "uint256",
          "name": "tokenId",
          "type": "uint256"
        }
      ],
      "name": "approve",
      "outputs": [],
      "stateMutability": "nonpayable",
      "type": "function"
    },
    {
      "inputs": [
        {
          "internalType": "address",
          "name": "owner",
          "type": "address"
        }
      ],
      "name": "balanceOf",
      "outputs": [
        {
          "internalType": "uint256",
          "name": "",
          "type": "uint256"
        }
      ],
      "stateMutability": "view",
      "type": "function"
    },
    {
      "inputs": [
        {
          "internalType": "uint256",
          "name": "tokenId",
          "type": "uint256"
        }
      ],
      "name": "getApproved",
      "outputs": [
        {
          "internalType": "address",
          "name": "",
          "type": "address"
        }
      ],
      "stateMutability": "view",
      "type": "function"
    },
    {
      "inputs": [
        {
          "internalType": "address",
          "name": "owner",
          "type": "address"
        },
        {
          "internalType": "address",
          "name": "operator",
          "type": "address"
        }
      ],
      "name": "isApprovedForAll",
      "outputs": [
        {
          "internalType": "bool",
          "name": "",
          "type": "bool"
        }
      ],
      "stateMutability": "view",
      "type": "function"
    },
    {
      "inputs": [],
      "name": "name",
      "outputs": [
        {
          "internalType": "string",
          "name": "",
          "type": "string"
        }
      ],
      "stateMutability": "view",
      "type": "function"
    },
    {
      "inputs": [],
      "name": "owner",
      "outputs": [
        {
          "internalType": "address",
          "name": "",
          "type": "address"
        }
      ],
      "stateMutability": "view",
      "type": "function"
    },
    {
      "inputs": [
        {
          "internalType": "uint256",
          "name": "tokenId",
          "type": "uint256"
        }
      ],
      "name": "ownerOf",
      "outputs": [
        {
          "internalType": "address",
          "name": "",
          "type": "address"
        }
      ],
      "stateMutability": "view",
      "type": "function"
    },
    {
      "inputs": [],
      "name": "renounceOwnership",
      "outputs": [],
      "stateMutability": "nonpayable",
      "type": "function"
    },
    {
      "inputs": [
        {
          "internalType": "address",
          "name": "from",
          "type": "address"
        },
        {
          "internalType": "address",
          "name": "to",
          "type": "address"
        },
        {
          "internalType": "uint256",
          "name": "tokenId",
          "type": "uint256"
        }
      ],
      "name": "safeTransferFrom",
      "outputs": [],
      "stateMutability": "nonpayable",
      "type": "function"
    },
    {
      "inputs": [
        {
          "internalType": "address",
          "name": "from",
          "type": "address"
        },
        {
          "internalType": "address",
          "name": "to",
          "type": "address"
        },
        {
          "internalType": "uint256",
          "name": "tokenId",
          "type": "uint256"
        },
        {
          "internalType": "bytes",
          "name": "_data",
          "type": "bytes"
        }
      ],
      "name": "safeTransferFrom",
      "outputs": [],
      "stateMutability": "nonpayable",
      "type": "function"
    },
    {
      "inputs": [
        {
          "internalType": "address",
          "name": "operator",
          "type": "address"
        },
        {
          "internalType": "bool",
          "name": "approved",
          "type": "bool"
        }
      ],
      "name": "setApprovalForAll",
      "outputs": [],
      "stateMutability": "nonpayable",
      "type": "function"
    },
    {
      "inputs": [
        {
          "internalType": "bytes4",
          "name": "interfaceId",
          "type": "bytes4"
        }
      ],
      "name": "supportsInterface",
      "outputs": [
        {
          "internalType": "bool",
          "name": "",
          "type": "bool"
        }
      ],
      "stateMutability": "view",
      "type": "function"
    },
    {
      "inputs": [],
      "name": "symbol",
      "outputs": [
        {
          "internalType": "string",
          "name": "",
          "type": "string"
        }
      ],
      "stateMutability": "view",
      "type": "function"
    },
    {
      "inputs": [
        {
          "internalType": "uint256",
          "name": "tokenId",
          "type": "uint256"
        }
      ],
      "name": "tokenURI",
      "outputs": [
        {
          "internalType": "string",
          "name": "",
          "type": "string"
        }
      ],
      "stateMutability": "view",
      "type": "function"
    },
    {
      "inputs": [
        {
          "internalType": "address",
          "name": "from",
          "type": "address"
        },
        {
          "internalType": "address",
          "name": "to",
          "type": "address"
        },
        {
          "internalType": "uint256",
          "name": "tokenId",
          "type": "uint256"
        }
      ],
      "name": "transferFrom",
      "outputs": [],
      "stateMutability": "nonpayable",
      "type": "function"
    },
    {
      "inputs": [
        {
          "internalType": "address",
          "name": "newOwner",
          "type": "address"
        }
      ],
      "name": "transferOwnership",
      "outputs": [],
      "stateMutability": "nonpayable",
      "type": "function"
    },
    {
      "inputs": [
        {
          "internalType": "string",
          "name": "_name",
          "type": "string"
        },
        {
          "internalType": "string",
          "name": "_symbol",
          "type": "string"
        }
      ],
      "name": "initialize",
      "outputs": [],
      "stateMutability": "nonpayable",
      "type": "function"
    },
    {
      "inputs": [
        {
          "internalType": "address",
          "name": "recipient",
          "type": "address"
        },
        {
          "internalType": "string",
          "name": "tokenURI",
          "type": "string"
        }
      ],
      "name": "mintNFT",
      "outputs": [
        {
          "internalType": "uint256",
          "name": "",
          "type": "uint256"
        }
      ],
      "stateMutability": "nonpayable",
      "type": "function"
    }
  ],
  "bytecode": "0x608060405234801561001057600080fd5b50613816806100206000396000f3fe608060405234801561001057600080fd5b50600436106101165760003560e01c8063715018a6116100a2578063b88d4fde11610071578063b88d4fde146102cb578063c87b56dd146102e7578063e985e9c514610317578063eacabe1414610347578063f2fde38b1461037757610116565b8063715018a6146102695780638da5cb5b1461027357806395d89b4114610291578063a22cb465146102af57610116565b806323b872dd116100e957806323b872dd146101b557806342842e0e146101d15780634cd88b76146101ed5780636352211e1461020957806370a082311461023957610116565b806301ffc9a71461011b57806306fdde031461014b578063081812fc14610169578063095ea7b314610199575b600080fd5b610135600480360381019061013091906127d2565b610393565b604051610142919061310e565b60405180910390f35b610153610475565b6040516101609190613129565b60405180910390f35b610183600480360381019061017e9190612890565b610507565b60405161019091906130a7565b60405180910390f35b6101b360048036038101906101ae9190612796565b61058c565b005b6101cf60048036038101906101ca919061263c565b6106a4565b005b6101eb60048036038101906101e6919061263c565b610704565b005b61020760048036038101906102029190612824565b610724565b005b610223600480360381019061021e9190612890565b610819565b60405161023091906130a7565b60405180910390f35b610253600480360381019061024e91906125d7565b6108cb565b60405161026091906133ab565b60405180910390f35b610271610983565b005b61027b610a0b565b60405161028891906130a7565b60405180910390f35b610299610a35565b6040516102a69190613129565b60405180910390f35b6102c960048036038101906102c49190612706565b610ac7565b005b6102e560048036038101906102e0919061268b565b610c48565b005b61030160048036038101906102fc9190612890565b610caa565b60405161030e9190613129565b60405180910390f35b610331600480360381019061032c9190612600565b610dfc565b60405161033e919061310e565b60405180910390f35b610361600480360381019061035c9190612742565b610e90565b60405161036e91906133ab565b60405180910390f35b610391600480360381019061038c91906125d7565b610f44565b005b60007f80ac58cd000000000000000000000000000000000000000000000000000000007bffffffffffffffffffffffffffffffffffffffffffffffffffffffff1916827bffffffffffffffffffffffffffffffffffffffffffffffffffffffff1916148061045e57507f5b5e139f000000000000000000000000000000000000000000000000000000007bffffffffffffffffffffffffffffffffffffffffffffffffffffffff1916827bffffffffffffffffffffffffffffffffffffffffffffffffffffffff1916145b8061046e575061046d8261103c565b5b9050919050565b6060606580546104849061360b565b80601f01602080910402602001604051908101604052809291908181526020018280546104b09061360b565b80156104fd5780601f106104d2576101008083540402835291602001916104fd565b820191906000526020600020905b8154815290600101906020018083116104e057829003601f168201915b5050505050905090565b6000610512826110a6565b610551576040517f08c379a0000000000000000000000000000000000000000000000000000000008152600401610548906132eb565b60405180910390fd5b6069600083815260200190815260200160002060009054906101000a900473ffffffffffffffffffffffffffffffffffffffff169050919050565b600061059782610819565b90508073ffffffffffffffffffffffffffffffffffffffff168373ffffffffffffffffffffffffffffffffffffffff161415610608576040517f08c379a00000000000000000000000000000000000000000000000000000000081526004016105ff9061336b565b60405180910390fd5b8073ffffffffffffffffffffffffffffffffffffffff16610627611112565b73ffffffffffffffffffffffffffffffffffffffff161480610656575061065581610650611112565b610dfc565b5b610695576040517f08c379a000000000000000000000000000000000000000000000000000000000815260040161068c9061320b565b60405180910390fd5b61069f838361111a565b505050565b6106b56106af611112565b826111d3565b6106f4576040517f08c379a00000000000000000000000000000000000000000000000000000000081526004016106eb9061338b565b60405180910390fd5b6106ff8383836112b1565b505050565b61071f83838360405180602001604052806000815250610c48565b505050565b600060019054906101000a900460ff168061074a575060008054906101000a900460ff16155b610789576040517f08c379a00000000000000000000000000000000000000000000000000000000081526004016107809061328b565b60405180910390fd5b60008060019054906101000a900460ff1615905080156107d9576001600060016101000a81548160ff02191690831515021790555060016000806101000a81548160ff0219169083151502179055505b6107e161150d565b6107eb83836115f6565b6107f36116eb565b80156108145760008060016101000a81548160ff0219169083151502179055505b505050565b6000806067600084815260200190815260200160002060009054906101000a900473ffffffffffffffffffffffffffffffffffffffff169050600073ffffffffffffffffffffffffffffffffffffffff168173ffffffffffffffffffffffffffffffffffffffff1614156108c2576040517f08c379a00000000000000000000000000000000000000000000000000000000081526004016108b99061324b565b60405180910390fd5b80915050919050565b60008073ffffffffffffffffffffffffffffffffffffffff168273ffffffffffffffffffffffffffffffffffffffff16141561093c576040517f08c379a00000000000000000000000000000000000000000000000000000000081526004016109339061322b565b60405180910390fd5b606860008373ffffffffffffffffffffffffffffffffffffffff1673ffffffffffffffffffffffffffffffffffffffff168152602001908152602001600020549050919050565b61098b611112565b73ffffffffffffffffffffffffffffffffffffffff166109a9610a0b565b73ffffffffffffffffffffffffffffffffffffffff16146109ff576040517f08c379a00000000000000000000000000000000000000000000000000000000081526004016109f69061330b565b60405180910390fd5b610a0960006117dc565b565b600060c960009054906101000a900473ffffffffffffffffffffffffffffffffffffffff16905090565b606060668054610a449061360b565b80601f0160208091040260200160405190810160405280929190818152602001828054610a709061360b565b8015610abd5780601f10610a9257610100808354040283529160200191610abd565b820191906000526020600020905b815481529060010190602001808311610aa057829003601f168201915b5050505050905090565b610acf611112565b73ffffffffffffffffffffffffffffffffffffffff168273ffffffffffffffffffffffffffffffffffffffff161415610b3d576040517f08c379a0000000000000000000000000000000000000000000000000000000008152600401610b34906131cb565b60405180910390fd5b80606a6000610b4a611112565b73ffffffffffffffffffffffffffffffffffffffff1673ffffffffffffffffffffffffffffffffffffffff16815260200190815260200160002060008473ffffffffffffffffffffffffffffffffffffffff1673ffffffffffffffffffffffffffffffffffffffff16815260200190815260200160002060006101000a81548160ff0219169083151502179055508173ffffffffffffffffffffffffffffffffffffffff16610bf7611112565b73ffffffffffffffffffffffffffffffffffffffff167f17307eab39ab6107e8899845ad3d59bd9653f200f220920489ca2b5937696c3183604051610c3c919061310e565b60405180910390a35050565b610c59610c53611112565b836111d3565b610c98576040517f08c379a0000000000000000000000000000000000000000000000000000000008152600401610c8f9061338b565b60405180910390fd5b610ca4848484846118a2565b50505050565b6060610cb5826110a6565b610cf4576040517f08c379a0000000000000000000000000000000000000000000000000000000008152600401610ceb906132cb565b60405180910390fd5b6000609760008481526020019081526020016000208054610d149061360b565b80601f0160208091040260200160405190810160405280929190818152602001828054610d409061360b565b8015610d8d5780601f10610d6257610100808354040283529160200191610d8d565b820191906000526020600020905b815481529060010190602001808311610d7057829003601f168201915b505050505090506000610d9e6118fe565b9050600081511415610db4578192505050610df7565b600082511115610de9578082604051602001610dd1929190613083565b60405160208183030381529060405292505050610df7565b610df284611915565b925050505b919050565b6000606a60008473ffffffffffffffffffffffffffffffffffffffff1673ffffffffffffffffffffffffffffffffffffffff16815260200190815260200160002060008373ffffffffffffffffffffffffffffffffffffffff1673ffffffffffffffffffffffffffffffffffffffff16815260200190815260200160002060009054906101000a900460ff16905092915050565b6000610e9a611112565b73ffffffffffffffffffffffffffffffffffffffff16610eb8610a0b565b73ffffffffffffffffffffffffffffffffffffffff1614610f0e576040517f08c379a0000000000000000000000000000000000000000000000000000000008152600401610f059061330b565b60405180910390fd5b610f1860fb6119bc565b6000610f2460fb6119d2565b9050610f3084826119e0565b610f3a8184611bae565b8091505092915050565b610f4c611112565b73ffffffffffffffffffffffffffffffffffffffff16610f6a610a0b565b73ffffffffffffffffffffffffffffffffffffffff1614610fc0576040517f08c379a0000000000000000000000000000000000000000000000000000000008152600401610fb79061330b565b60405180910390fd5b600073ffffffffffffffffffffffffffffffffffffffff168173ffffffffffffffffffffffffffffffffffffffff161415611030576040517f08c379a00000000000000000000000000000000000000000000000000000000081526004016110279061316b565b60405180910390fd5b611039816117dc565b50565b60007f01ffc9a7000000000000000000000000000000000000000000000000000000007bffffffffffffffffffffffffffffffffffffffffffffffffffffffff1916827bffffffffffffffffffffffffffffffffffffffffffffffffffffffff1916149050919050565b60008073ffffffffffffffffffffffffffffffffffffffff166067600084815260200190815260200160002060009054906101000a900473ffffffffffffffffffffffffffffffffffffffff1673ffffffffffffffffffffffffffffffffffffffff1614159050919050565b600033905090565b816069600083815260200190815260200160002060006101000a81548173ffffffffffffffffffffffffffffffffffffffff021916908373ffffffffffffffffffffffffffffffffffffffff160217905550808273ffffffffffffffffffffffffffffffffffffffff1661118d83610819565b73ffffffffffffffffffffffffffffffffffffffff167f8c5be1e5ebec7d5bd14f71427d1e84f3dd0314c0f7b2291e5b200ac8c7c3b92560405160405180910390a45050565b60006111de826110a6565b61121d576040517f08c379a0000000000000000000000000000000000000000000000000000000008152600401611214906131eb565b60405180910390fd5b600061122883610819565b90508073ffffffffffffffffffffffffffffffffffffffff168473ffffffffffffffffffffffffffffffffffffffff16148061129757508373ffffffffffffffffffffffffffffffffffffffff1661127f84610507565b73ffffffffffffffffffffffffffffffffffffffff16145b806112a857506112a78185610dfc565b5b91505092915050565b8273ffffffffffffffffffffffffffffffffffffffff166112d182610819565b73ffffffffffffffffffffffffffffffffffffffff1614611327576040517f08c379a000000000000000000000000000000000000000000000000000000000815260040161131e9061332b565b60405180910390fd5b600073ffffffffffffffffffffffffffffffffffffffff168273ffffffffffffffffffffffffffffffffffffffff161415611397576040517f08c379a000000000000000000000000000000000000000000000000000000000815260040161138e906131ab565b60405180910390fd5b6113a2838383611c22565b6113ad60008261111a565b6001606860008573ffffffffffffffffffffffffffffffffffffffff1673ffffffffffffffffffffffffffffffffffffffff16815260200190815260200160002060008282546113fd9190613521565b925050819055506001606860008473ffffffffffffffffffffffffffffffffffffffff1673ffffffffffffffffffffffffffffffffffffffff1681526020019081526020016000206000828254611454919061349a565b92505081905550816067600083815260200190815260200160002060006101000a81548173ffffffffffffffffffffffffffffffffffffffff021916908373ffffffffffffffffffffffffffffffffffffffff160217905550808273ffffffffffffffffffffffffffffffffffffffff168473ffffffffffffffffffffffffffffffffffffffff167fddf252ad1be2c89b69c2b068fc378daa952ba7f163c4a11628f55a4df523b3ef60405160405180910390a4505050565b600060019054906101000a900460ff1680611533575060008054906101000a900460ff16155b611572576040517f08c379a00000000000000000000000000000000000000000000000000000000081526004016115699061328b565b60405180910390fd5b60008060019054906101000a900460ff1615905080156115c2576001600060016101000a81548160ff02191690831515021790555060016000806101000a81548160ff0219169083151502179055505b6115ca611c27565b6115d2611d00565b80156115f35760008060016101000a81548160ff0219169083151502179055505b50565b600060019054906101000a900460ff168061161c575060008054906101000a900460ff16155b61165b576040517f08c379a00000000000000000000000000000000000000000000000000000000081526004016116529061328b565b60405180910390fd5b60008060019054906101000a900460ff1615905080156116ab576001600060016101000a81548160ff02191690831515021790555060016000806101000a81548160ff0219169083151502179055505b6116b3611c27565b6116bb611de9565b6116c58383611ec2565b80156116e65760008060016101000a81548160ff0219169083151502179055505b505050565b600060019054906101000a900460ff1680611711575060008054906101000a900460ff16155b611750576040517f08c379a00000000000000000000000000000000000000000000000000000000081526004016117479061328b565b60405180910390fd5b60008060019054906101000a900460ff1615905080156117a0576001600060016101000a81548160ff02191690831515021790555060016000806101000a81548160ff0219169083151502179055505b6117a8611c27565b6117b0611de9565b6117b8611fcb565b80156117d95760008060016101000a81548160ff0219169083151502179055505b50565b600060c960009054906101000a900473ffffffffffffffffffffffffffffffffffffffff1690508160c960006101000a81548173ffffffffffffffffffffffffffffffffffffffff021916908373ffffffffffffffffffffffffffffffffffffffff1602179055508173ffffffffffffffffffffffffffffffffffffffff168173ffffffffffffffffffffffffffffffffffffffff167f8be0079c531659141344cd1fd0a4f28419497f9722a3daafe3b4186f6b6457e060405160405180910390a35050565b6118ad8484846112b1565b6118b9848484846120a4565b6118f8576040517f08c379a00000000000000000000000000000000000000000000000000000000081526004016118ef9061314b565b60405180910390fd5b50505050565b606060405180602001604052806000815250905090565b6060611920826110a6565b61195f576040517f08c379a00000000000000000000000000000000000000000000000000000000081526004016119569061334b565b60405180910390fd5b60006119696118fe565b9050600081511161198957604051806020016040528060008152506119b4565b806119938461223b565b6040516020016119a4929190613083565b6040516020818303038152906040525b915050919050565b6001816000016000828254019250508190555050565b600081600001549050919050565b600073ffffffffffffffffffffffffffffffffffffffff168273ffffffffffffffffffffffffffffffffffffffff161415611a50576040517f08c379a0000000000000000000000000000000000000000000000000000000008152600401611a47906132ab565b60405180910390fd5b611a59816110a6565b15611a99576040517f08c379a0000000000000000000000000000000000000000000000000000000008152600401611a909061318b565b60405180910390fd5b611aa560008383611c22565b6001606860008473ffffffffffffffffffffffffffffffffffffffff1673ffffffffffffffffffffffffffffffffffffffff1681526020019081526020016000206000828254611af5919061349a565b92505081905550816067600083815260200190815260200160002060006101000a81548173ffffffffffffffffffffffffffffffffffffffff021916908373ffffffffffffffffffffffffffffffffffffffff160217905550808273ffffffffffffffffffffffffffffffffffffffff16600073ffffffffffffffffffffffffffffffffffffffff167fddf252ad1be2c89b69c2b068fc378daa952ba7f163c4a11628f55a4df523b3ef60405160405180910390a45050565b611bb7826110a6565b611bf6576040517f08c379a0000000000000000000000000000000000000000000000000000000008152600401611bed9061326b565b60405180910390fd5b80609760008481526020019081526020016000209080519060200190611c1d9291906123fb565b505050565b505050565b600060019054906101000a900460ff1680611c4d575060008054906101000a900460ff16155b611c8c576040517f08c379a0000000000000000000000000000000000000000000000000000000008152600401611c839061328b565b60405180910390fd5b60008060019054906101000a900460ff161590508015611cdc576001600060016101000a81548160ff02191690831515021790555060016000806101000a81548160ff0219169083151502179055505b8015611cfd5760008060016101000a81548160ff0219169083151502179055505b50565b600060019054906101000a900460ff1680611d26575060008054906101000a900460ff16155b611d65576040517f08c379a0000000000000000000000000000000000000000000000000000000008152600401611d5c9061328b565b60405180910390fd5b60008060019054906101000a900460ff161590508015611db5576001600060016101000a81548160ff02191690831515021790555060016000806101000a81548160ff0219169083151502179055505b611dc5611dc0611112565b6117dc565b8015611de65760008060016101000a81548160ff0219169083151502179055505b50565b600060019054906101000a900460ff1680611e0f575060008054906101000a900460ff16155b611e4e576040517f08c379a0000000000000000000000000000000000000000000000000000000008152600401611e459061328b565b60405180910390fd5b60008060019054906101000a900460ff161590508015611e9e576001600060016101000a81548160ff02191690831515021790555060016000806101000a81548160ff0219169083151502179055505b8015611ebf5760008060016101000a81548160ff0219169083151502179055505b50565b600060019054906101000a900460ff1680611ee8575060008054906101000a900460ff16155b611f27576040517f08c379a0000000000000000000000000000000000000000000000000000000008152600401611f1e9061328b565b60405180910390fd5b60008060019054906101000a900460ff161590508015611f77576001600060016101000a81548160ff02191690831515021790555060016000806101000a81548160ff0219169083151502179055505b8260659080519060200190611f8d9291906123fb565b508160669080519060200190611fa49291906123fb565b508015611fc65760008060016101000a81548160ff0219169083151502179055505b505050565b600060019054906101000a900460ff1680611ff1575060008054906101000a900460ff16155b612030576040517f08c379a00000000000000000000000000000000000000000000000000000000081526004016120279061328b565b60405180910390fd5b60008060019054906101000a900460ff161590508015612080576001600060016101000a81548160ff02191690831515021790555060016000806101000a81548160ff0219169083151502179055505b80156120a15760008060016101000a81548160ff0219169083151502179055505b50565b60006120c58473ffffffffffffffffffffffffffffffffffffffff166123e8565b1561222e578373ffffffffffffffffffffffffffffffffffffffff1663150b7a026120ee611112565b8786866040518563ffffffff1660e01b815260040161211094939291906130c2565b602060405180830381600087803b15801561212a57600080fd5b505af192505050801561215b57506040513d601f19601f8201168201806040525081019061215891906127fb565b60015b6121de573d806000811461218b576040519150601f19603f3d011682016040523d82523d6000602084013e612190565b606091505b506000815114156121d6576040517f08c379a00000000000000000000000000000000000000000000000000000000081526004016121cd9061314b565b60405180910390fd5b805181602001fd5b63150b7a0260e01b7bffffffffffffffffffffffffffffffffffffffffffffffffffffffff1916817bffffffffffffffffffffffffffffffffffffffffffffffffffffffff191614915050612233565b600190505b949350505050565b60606000821415612283576040518060400160405280600181526020017f300000000000000000000000000000000000000000000000000000000000000081525090506123e3565b600082905060005b600082146122b557808061229e9061363d565b915050600a826122ae91906134f0565b915061228b565b60008167ffffffffffffffff8111156122f7577f4e487b7100000000000000000000000000000000000000000000000000000000600052604160045260246000fd5b6040519080825280601f01601f1916602001820160405280156123295781602001600182028036833780820191505090505b5090505b600085146123dc576001826123429190613521565b9150600a856123519190613686565b603061235d919061349a565b60f81b818381518110612399577f4e487b7100000000000000000000000000000000000000000000000000000000600052603260045260246000fd5b60200101907effffffffffffffffffffffffffffffffffffffffffffffffffffffffffffff1916908160001a905350600a856123d591906134f0565b945061232d565b8093505050505b919050565b600080823b905060008111915050919050565b8280546124079061360b565b90600052602060002090601f0160209004810192826124295760008555612470565b82601f1061244257805160ff1916838001178555612470565b82800160010185558215612470579182015b8281111561246f578251825591602001919060010190612454565b5b50905061247d9190612481565b5090565b5b8082111561249a576000816000905550600101612482565b5090565b60006124b16124ac846133f7565b6133c6565b9050828152602081018484840111156124c957600080fd5b6124d48482856135c9565b509392505050565b60006124ef6124ea84613427565b6133c6565b90508281526020810184848401111561250757600080fd5b6125128482856135c9565b509392505050565b60008135905061252981613784565b92915050565b60008135905061253e8161379b565b92915050565b600081359050612553816137b2565b92915050565b600081519050612568816137b2565b92915050565b600082601f83011261257f57600080fd5b813561258f84826020860161249e565b91505092915050565b600082601f8301126125a957600080fd5b81356125b98482602086016124dc565b91505092915050565b6000813590506125d1816137c9565b92915050565b6000602082840312156125e957600080fd5b60006125f78482850161251a565b91505092915050565b6000806040838503121561261357600080fd5b60006126218582860161251a565b92505060206126328582860161251a565b9150509250929050565b60008060006060848603121561265157600080fd5b600061265f8682870161251a565b93505060206126708682870161251a565b9250506040612681868287016125c2565b9150509250925092565b600080600080608085870312156126a157600080fd5b60006126af8782880161251a565b94505060206126c08782880161251a565b93505060406126d1878288016125c2565b925050606085013567ffffffffffffffff8111156126ee57600080fd5b6126fa8782880161256e565b91505092959194509250565b6000806040838503121561271957600080fd5b60006127278582860161251a565b92505060206127388582860161252f565b9150509250929050565b6000806040838503121561275557600080fd5b60006127638582860161251a565b925050602083013567ffffffffffffffff81111561278057600080fd5b61278c85828601612598565b9150509250929050565b600080604083850312156127a957600080fd5b60006127b78582860161251a565b92505060206127c8858286016125c2565b9150509250929050565b6000602082840312156127e457600080fd5b60006127f284828501612544565b91505092915050565b60006020828403121561280d57600080fd5b600061281b84828501612559565b91505092915050565b6000806040838503121561283757600080fd5b600083013567ffffffffffffffff81111561285157600080fd5b61285d85828601612598565b925050602083013567ffffffffffffffff81111561287a57600080fd5b61288685828601612598565b9150509250929050565b6000602082840312156128a257600080fd5b60006128b0848285016125c2565b91505092915050565b6128c281613555565b82525050565b6128d181613567565b82525050565b60006128e282613457565b6128ec818561346d565b93506128fc8185602086016135d8565b61290581613773565b840191505092915050565b600061291b82613462565b612925818561347e565b93506129358185602086016135d8565b61293e81613773565b840191505092915050565b600061295482613462565b61295e818561348f565b935061296e8185602086016135d8565b80840191505092915050565b600061298760328361347e565b91507f4552433732313a207472616e7366657220746f206e6f6e20455243373231526560008301527f63656976657220696d706c656d656e74657200000000000000000000000000006020830152604082019050919050565b60006129ed60268361347e565b91507f4f776e61626c653a206e6577206f776e657220697320746865207a65726f206160008301527f64647265737300000000000000000000000000000000000000000000000000006020830152604082019050919050565b6000612a53601c8361347e565b91507f4552433732313a20746f6b656e20616c7265616479206d696e746564000000006000830152602082019050919050565b6000612a9360248361347e565b91507f4552433732313a207472616e7366657220746f20746865207a65726f2061646460008301527f72657373000000000000000000000000000000000000000000000000000000006020830152604082019050919050565b6000612af960198361347e565b91507f4552433732313a20617070726f766520746f2063616c6c6572000000000000006000830152602082019050919050565b6000612b39602c8361347e565b91507f4552433732313a206f70657261746f7220717565727920666f72206e6f6e657860008301527f697374656e7420746f6b656e00000000000000000000000000000000000000006020830152604082019050919050565b6000612b9f60388361347e565b91507f4552433732313a20617070726f76652063616c6c6572206973206e6f74206f7760008301527f6e6572206e6f7220617070726f76656420666f7220616c6c00000000000000006020830152604082019050919050565b6000612c05602a8361347e565b91507f4552433732313a2062616c616e636520717565727920666f7220746865207a6560008301527f726f2061646472657373000000000000000000000000000000000000000000006020830152604082019050919050565b6000612c6b60298361347e565b91507f4552433732313a206f776e657220717565727920666f72206e6f6e657869737460008301527f656e7420746f6b656e00000000000000000000000000000000000000000000006020830152604082019050919050565b6000612cd1602e8361347e565b91507f45524337323155524953746f726167653a2055524920736574206f66206e6f6e60008301527f6578697374656e7420746f6b656e0000000000000000000000000000000000006020830152604082019050919050565b6000612d37602e8361347e565b91507f496e697469616c697a61626c653a20636f6e747261637420697320616c72656160008301527f647920696e697469616c697a65640000000000000000000000000000000000006020830152604082019050919050565b6000612d9d60208361347e565b91507f4552433732313a206d696e7420746f20746865207a65726f20616464726573736000830152602082019050919050565b6000612ddd60318361347e565b91507f45524337323155524953746f726167653a2055524920717565727920666f722060008301527f6e6f6e6578697374656e7420746f6b656e0000000000000000000000000000006020830152604082019050919050565b6000612e43602c8361347e565b91507f4552433732313a20617070726f76656420717565727920666f72206e6f6e657860008301527f697374656e7420746f6b656e00000000000000000000000000000000000000006020830152604082019050919050565b6000612ea960208361347e565b91507f4f776e61626c653a2063616c6c6572206973206e6f7420746865206f776e65726000830152602082019050919050565b6000612ee960298361347e565b91507f4552433732313a207472616e73666572206f6620746f6b656e2074686174206960008301527f73206e6f74206f776e00000000000000000000000000000000000000000000006020830152604082019050919050565b6000612f4f602f8361347e565b91507f4552433732314d657461646174613a2055524920717565727920666f72206e6f60008301527f6e6578697374656e7420746f6b656e00000000000000000000000000000000006020830152604082019050919050565b6000612fb560218361347e565b91507f4552433732313a20617070726f76616c20746f2063757272656e74206f776e6560008301527f72000000000000000000000000000000000000000000000000000000000000006020830152604082019050919050565b600061301b60318361347e565b91507f4552433732313a207472616e736665722063616c6c6572206973206e6f74206f60008301527f776e6572206e6f7220617070726f7665640000000000000000000000000000006020830152604082019050919050565b61307d816135bf565b82525050565b600061308f8285612949565b915061309b8284612949565b91508190509392505050565b60006020820190506130bc60008301846128b9565b92915050565b60006080820190506130d760008301876128b9565b6130e460208301866128b9565b6130f16040830185613074565b818103606083015261310381846128d7565b905095945050505050565b600060208201905061312360008301846128c8565b92915050565b600060208201905081810360008301526131438184612910565b905092915050565b600060208201905081810360008301526131648161297a565b9050919050565b60006020820190508181036000830152613184816129e0565b9050919050565b600060208201905081810360008301526131a481612a46565b9050919050565b600060208201905081810360008301526131c481612a86565b9050919050565b600060208201905081810360008301526131e481612aec565b9050919050565b6000602082019050818103600083015261320481612b2c565b9050919050565b6000602082019050818103600083015261322481612b92565b9050919050565b6000602082019050818103600083015261324481612bf8565b9050919050565b6000602082019050818103600083015261326481612c5e565b9050919050565b6000602082019050818103600083015261328481612cc4565b9050919050565b600060208201905081810360008301526132a481612d2a565b9050919050565b600060208201905081810360008301526132c481612d90565b9050919050565b600060208201905081810360008301526132e481612dd0565b9050919050565b6000602082019050818103600083015261330481612e36565b9050919050565b6000602082019050818103600083015261332481612e9c565b9050919050565b6000602082019050818103600083015261334481612edc565b9050919050565b6000602082019050818103600083015261336481612f42565b9050919050565b6000602082019050818103600083015261338481612fa8565b9050919050565b600060208201905081810360008301526133a48161300e565b9050919050565b60006020820190506133c06000830184613074565b92915050565b6000604051905081810181811067ffffffffffffffff821117156133ed576133ec613744565b5b8060405250919050565b600067ffffffffffffffff82111561341257613411613744565b5b601f19601f8301169050602081019050919050565b600067ffffffffffffffff82111561344257613441613744565b5b601f19601f8301169050602081019050919050565b600081519050919050565b600081519050919050565b600082825260208201905092915050565b600082825260208201905092915050565b600081905092915050565b60006134a5826135bf565b91506134b0836135bf565b9250827fffffffffffffffffffffffffffffffffffffffffffffffffffffffffffffffff038211156134e5576134e46136b7565b5b828201905092915050565b60006134fb826135bf565b9150613506836135bf565b925082613516576135156136e6565b5b828204905092915050565b600061352c826135bf565b9150613537836135bf565b92508282101561354a576135496136b7565b5b828203905092915050565b60006135608261359f565b9050919050565b60008115159050919050565b60007fffffffff0000000000000000000000000000000000000000000000000000000082169050919050565b600073ffffffffffffffffffffffffffffffffffffffff82169050919050565b6000819050919050565b82818337600083830152505050565b60005b838110156135f65780820151818401526020810190506135db565b83811115613605576000848401525b50505050565b6000600282049050600182168061362357607f821691505b6020821081141561363757613636613715565b5b50919050565b6000613648826135bf565b91507fffffffffffffffffffffffffffffffffffffffffffffffffffffffffffffffff82141561367b5761367a6136b7565b5b600182019050919050565b6000613691826135bf565b915061369c836135bf565b9250826136ac576136ab6136e6565b5b828206905092915050565b7f4e487b7100000000000000000000000000000000000000000000000000000000600052601160045260246000fd5b7f4e487b7100000000000000000000000000000000000000000000000000000000600052601260045260246000fd5b7f4e487b7100000000000000000000000000000000000000000000000000000000600052602260045260246000fd5b7f4e487b7100000000000000000000000000000000000000000000000000000000600052604160045260246000fd5b6000601f19601f8301169050919050565b61378d81613555565b811461379857600080fd5b50565b6137a481613567565b81146137af57600080fd5b50565b6137bb81613573565b81146137c657600080fd5b50565b6137d2816135bf565b81146137dd57600080fd5b5056fea264697066735822122012c4499a031026359ecc62ae1234e74ce42a9a6eedbe9e68c7aeabaf67afba6e64736f6c63430008000033",
  "immutableReferences": {},
  "source": "pragma solidity ^0.8.0;\n\nimport \"@openzeppelin/contracts/token/ERC721/ERC721.sol\";\nimport \"@openzeppelin/contracts/utils/Counters.sol\";\nimport \"@openzeppelin/contracts-upgradeable/proxy/utils/Initializable.sol\";\nimport \"@openzeppelin/contracts-upgradeable/access/OwnableUpgradeable.sol\";\nimport \"@openzeppelin/contracts-upgradeable/token/ERC721/extensions/ERC721URIStorageUpgradeable.sol\";\n\n\ncontract MyNFT is Initializable, ERC721URIStorageUpgradeable, OwnableUpgradeable {\n    using Counters for Counters.Counter;\n    Counters.Counter private _tokenIds;\n\n    \n    function initialize(string memory _name, string memory _symbol) public initializer {\n        __Ownable_init();\n      __ERC721_init(_name, _symbol);\n      __ERC721URIStorage_init();\n    }\n\n    function mintNFT(address recipient, string memory tokenURI)\n        public onlyOwner returns(uint256)\n    {\n        _tokenIds.increment();\n        uint256 newItemId = _tokenIds.current();\n        _mint(recipient, newItemId);\n        _setTokenURI(newItemId, tokenURI);\n\n        return newItemId;\n    }\n}\n",
  "sourcePath": "/workspace/contracts/MyNFT.sol",
  "compiler": {
    "name": "solc",
    "version": "0.8.0+commit.c7dfd78e.Emscripten.clang"
  },
  "schemaVersion": "3.4.3",
  "updatedAt": "2021-11-12T04:42:42.960Z",
  "networkType": "ethereum",
  "devdoc": {
    "kind": "dev",
    "methods": {
      "approve(address,uint256)": {
        "details": "See {IERC721-approve}."
      },
      "balanceOf(address)": {
        "details": "See {IERC721-balanceOf}."
      },
      "getApproved(uint256)": {
        "details": "See {IERC721-getApproved}."
      },
      "isApprovedForAll(address,address)": {
        "details": "See {IERC721-isApprovedForAll}."
      },
      "name()": {
        "details": "See {IERC721Metadata-name}."
      },
      "owner()": {
        "details": "Returns the address of the current owner."
      },
      "ownerOf(uint256)": {
        "details": "See {IERC721-ownerOf}."
      },
      "renounceOwnership()": {
        "details": "Leaves the contract without owner. It will not be possible to call `onlyOwner` functions anymore. Can only be called by the current owner. NOTE: Renouncing ownership will leave the contract without an owner, thereby removing any functionality that is only available to the owner."
      },
      "safeTransferFrom(address,address,uint256)": {
        "details": "See {IERC721-safeTransferFrom}."
      },
      "safeTransferFrom(address,address,uint256,bytes)": {
        "details": "See {IERC721-safeTransferFrom}."
      },
      "setApprovalForAll(address,bool)": {
        "details": "See {IERC721-setApprovalForAll}."
      },
      "supportsInterface(bytes4)": {
        "details": "See {IERC165-supportsInterface}."
      },
      "symbol()": {
        "details": "See {IERC721Metadata-symbol}."
      },
      "tokenURI(uint256)": {
        "details": "See {IERC721Metadata-tokenURI}."
      },
      "transferFrom(address,address,uint256)": {
        "details": "See {IERC721-transferFrom}."
      },
      "transferOwnership(address)": {
        "details": "Transfers ownership of the contract to a new account (`newOwner`). Can only be called by the current owner."
      }
    },
    "version": 1
  },
  "userdoc": {
    "kind": "user",
    "methods": {},
    "version": 1
  }
}