{
  "contractName": "TestCrowdFunding",
  "abi": [
    {
      "inputs": [
        {
          "internalType": "string",
          "name": "_name",
          "type": "string"
        },
        {
          "internalType": "uint256",
          "name": "_targetAmountEth",
          "type": "uint256"
        },
        {
          "internalType": "uint256",
          "name": "_durationInMin",
          "type": "uint256"
        },
        {
          "internalType": "address",
          "name": "_beneficiary",
          "type": "address"
        }
      ],
      "stateMutability": "nonpayable",
      "type": "constructor"
    },
    {
      "anonymous": false,
      "inputs": [
        {
          "indexed": false,
          "internalType": "address",
          "name": "addr",
          "type": "address"
        },
        {
          "indexed": false,
          "internalType": "uint256",
          "name": "totalCollected",
          "type": "uint256"
        },
        {
          "indexed": false,
          "internalType": "bool",
          "name": "succeeded",
          "type": "bool"
        }
      ],
      "name": "CampaignFinish",
      "type": "event"
    },
    {
      "inputs": [],
      "name": "beforeDeadline",
      "outputs": [
        {
          "internalType": "bool",
          "name": "",
          "type": "bool"
        }
      ],
      "stateMutability": "view",
      "type": "function"
    },
    {
      "inputs": [],
      "name": "collect",
      "outputs": [],
      "stateMutability": "nonpayable",
      "type": "function"
    },
    {
      "inputs": [],
      "name": "contribute",
      "outputs": [],
      "stateMutability": "payable",
      "type": "function"
    },
    {
      "inputs": [],
      "name": "finishCrowdFunding",
      "outputs": [],
      "stateMutability": "nonpayable",
      "type": "function"
    },
    {
      "inputs": [],
      "name": "getBeneficiary",
      "outputs": [
        {
          "internalType": "address",
          "name": "",
          "type": "address"
        }
      ],
      "stateMutability": "view",
      "type": "function"
    },
    {
      "inputs": [
        {
          "internalType": "address",
          "name": "addr",
          "type": "address"
        }
      ],
      "name": "getContribAmt",
      "outputs": [
        {
          "internalType": "uint256",
          "name": "",
          "type": "uint256"
        }
      ],
      "stateMutability": "view",
      "type": "function"
    },
    {
      "inputs": [],
      "name": "getFundingDeadline",
      "outputs": [
        {
          "internalType": "uint256",
          "name": "",
          "type": "uint256"
        }
      ],
      "stateMutability": "view",
      "type": "function"
    },
    {
      "inputs": [],
      "name": "getName",
      "outputs": [
        {
          "internalType": "string",
          "name": "",
          "type": "string"
        }
      ],
      "stateMutability": "view",
      "type": "function"
    },
    {
      "inputs": [],
      "name": "getState",
      "outputs": [
        {
          "internalType": "enum CrowdFunding.State",
          "name": "",
          "type": "uint8"
        }
      ],
      "stateMutability": "view",
      "type": "function"
    },
    {
      "inputs": [],
      "name": "getTargetAmount",
      "outputs": [
        {
          "internalType": "uint256",
          "name": "",
          "type": "uint256"
        }
      ],
      "stateMutability": "view",
      "type": "function"
    },
    {
      "inputs": [],
      "name": "getTotalCollected",
      "outputs": [
        {
          "internalType": "uint256",
          "name": "",
          "type": "uint256"
        }
      ],
      "stateMutability": "view",
      "type": "function"
    },
    {
      "inputs": [],
      "name": "state",
      "outputs": [
        {
          "internalType": "enum CrowdFunding.State",
          "name": "",
          "type": "uint8"
        }
      ],
      "stateMutability": "view",
      "type": "function"
    },
    {
      "inputs": [],
      "name": "withdraw",
      "outputs": [],
      "stateMutability": "nonpayable",
      "type": "function"
    },
    {
      "inputs": [],
      "name": "currentTime",
      "outputs": [
        {
          "internalType": "uint256",
          "name": "",
          "type": "uint256"
        }
      ],
      "stateMutability": "view",
      "type": "function"
    },
    {
      "inputs": [
        {
          "internalType": "uint256",
          "name": "newTime",
          "type": "uint256"
        }
      ],
      "name": "setCurrentTime",
      "outputs": [],
      "stateMutability": "nonpayable",
      "type": "function"
    }
  ],
  "bytecode": "0x60806040523480156200001157600080fd5b50604051620018ac380380620018ac833981810160405281019062000037919062000391565b8383838383600090805190602001906200005392919062000241565b5073__ConvertLib____________________________638dfd0b03846040518263ffffffff1660e01b81526004016200008d919062000453565b60206040518083038186803b158015620000a657600080fd5b505af4158015620000bb573d6000803e3d6000fd5b505050506040513d601f19601f82011682018060405250810190620000e1919062000416565b60018190555073__ConvertLib____________________________63529b380f836040518263ffffffff1660e01b815260040162000120919062000453565b60206040518083038186803b1580156200013957600080fd5b505af41580156200014e573d6000803e3d6000fd5b505050506040513d601f19601f8201168201806040525081019062000174919062000416565b620001846200023760201b60201c565b620001909190620004d7565b60028190555080600360006101000a81548173ffffffffffffffffffffffffffffffffffffffff021916908373ffffffffffffffffffffffffffffffffffffffff1602179055506000600360146101000a81548160ff0219169083600381111562000224577f4e487b7100000000000000000000000000000000000000000000000000000000600052602160045260246000fd5b021790555050505050505050506200069f565b6000600754905090565b8280546200024f90620005a8565b90600052602060002090601f016020900481019282620002735760008555620002bf565b82601f106200028e57805160ff1916838001178555620002bf565b82800160010185558215620002bf579182015b82811115620002be578251825591602001919060010190620002a1565b5b509050620002ce9190620002d2565b5090565b5b80821115620002ed576000816000905550600101620002d3565b5090565b6000620003086200030284620004a4565b62000470565b9050828152602081018484840111156200032157600080fd5b6200032e84828562000572565b509392505050565b60008151905062000347816200066b565b92915050565b600082601f8301126200035f57600080fd5b815162000371848260208601620002f1565b91505092915050565b6000815190506200038b8162000685565b92915050565b60008060008060808587031215620003a857600080fd5b600085015167ffffffffffffffff811115620003c357600080fd5b620003d1878288016200034d565b9450506020620003e4878288016200037a565b9350506040620003f7878288016200037a565b92505060606200040a8782880162000336565b91505092959194509250565b6000602082840312156200042957600080fd5b600062000439848285016200037a565b91505092915050565b6200044d8162000568565b82525050565b60006020820190506200046a600083018462000442565b92915050565b6000604051905081810181811067ffffffffffffffff821117156200049a57620004996200063c565b5b8060405250919050565b600067ffffffffffffffff821115620004c257620004c16200063c565b5b601f19601f8301169050602081019050919050565b6000620004e48262000568565b9150620004f18362000568565b9250827fffffffffffffffffffffffffffffffffffffffffffffffffffffffffffffffff03821115620005295762000528620005de565b5b828201905092915050565b6000620005418262000548565b9050919050565b600073ffffffffffffffffffffffffffffffffffffffff82169050919050565b6000819050919050565b60005b838110156200059257808201518184015260208101905062000575565b83811115620005a2576000848401525b50505050565b60006002820490506001821680620005c157607f821691505b60208210811415620005d857620005d76200060d565b5b50919050565b7f4e487b7100000000000000000000000000000000000000000000000000000000600052601160045260246000fd5b7f4e487b7100000000000000000000000000000000000000000000000000000000600052602260045260246000fd5b7f4e487b7100000000000000000000000000000000000000000000000000000000600052604160045260246000fd5b620006768162000534565b81146200068257600080fd5b50565b620006908162000568565b81146200069c57600080fd5b50565b6111fd80620006af6000396000f3fe6080604052600436106100e85760003560e01c806368bc00411161008a578063d18e81b311610059578063d18e81b3146102ae578063d7bb99ba146102d9578063e5225381146102e3578063fbe5d87e146102fa576100e8565b806368bc0041146101f057806391ac4b881461021b578063c19d93fb14610246578063ce40e3d414610271576100e8565b806322f8e566116100c657806322f8e5661461015a5780633ccfd60b14610183578063565a2e2c1461019a57806356b6491a146101c5576100e8565b8063083dca11146100ed57806317d7de7c146101045780631865c57d1461012f575b600080fd5b3480156100f957600080fd5b50610102610325565b005b34801561011057600080fd5b5061011961053b565b6040516101269190610ee6565b60405180910390f35b34801561013b57600080fd5b506101446105cd565b6040516101519190610ecb565b60405180910390f35b34801561016657600080fd5b50610181600480360381019061017c9190610cc0565b6105e4565b005b34801561018f57600080fd5b506101986105ee565b005b3480156101a657600080fd5b506101af61083e565b6040516101bc9190610e5e565b60405180910390f35b3480156101d157600080fd5b506101da610868565b6040516101e79190610f88565b60405180910390f35b3480156101fc57600080fd5b50610205610872565b6040516102129190610eb0565b60405180910390f35b34801561022757600080fd5b50610230610885565b60405161023d9190610f88565b60405180910390f35b34801561025257600080fd5b5061025b61088f565b6040516102689190610ecb565b60405180910390f35b34801561027d57600080fd5b5061029860048036038101906102939190610c97565b6108a2565b6040516102a59190610f88565b60405180910390f35b3480156102ba57600080fd5b506102c36108eb565b6040516102d09190610f88565b60405180910390f35b6102e16108f5565b005b3480156102ef57600080fd5b506102f8610a98565b005b34801561030657600080fd5b5061030f610c63565b60405161031c9190610f88565b60405180910390f35b6000806003811115610360577f4e487b7100000000000000000000000000000000000000000000000000000000600052602160045260246000fd5b600360149054906101000a900460ff1660038111156103a8577f4e487b7100000000000000000000000000000000000000000000000000000000600052602160045260246000fd5b146103e8576040517f08c379a00000000000000000000000000000000000000000000000000000000081526004016103df90610f68565b60405180910390fd5b6103f0610872565b15610430576040517f08c379a000000000000000000000000000000000000000000000000000000000815260040161042790610f28565b60405180910390fd5b600560009054906101000a900460ff1661049a576001600360146101000a81548160ff02191690836003811115610490577f4e487b7100000000000000000000000000000000000000000000000000000000600052602160045260246000fd5b02179055506104ec565b6002600360146101000a81548160ff021916908360038111156104e6577f4e487b7100000000000000000000000000000000000000000000000000000000600052602160045260246000fd5b02179055505b7f7ccbb520303a5cff021f34a831dad11a7472e6eb771da7492789394806039bf730600654600560009054906101000a900460ff1660405161053093929190610e79565b60405180910390a150565b60606000805461054a906110b5565b80601f0160208091040260200160405190810160405280929190818152602001828054610576906110b5565b80156105c35780601f10610598576101008083540402835291602001916105c3565b820191906000526020600020905b8154815290600101906020018083116105a657829003601f168201915b5050505050905090565b6000600360149054906101000a900460ff16905090565b8060078190555050565b6001806003811115610629577f4e487b7100000000000000000000000000000000000000000000000000000000600052602160045260246000fd5b600360149054906101000a900460ff166003811115610671577f4e487b7100000000000000000000000000000000000000000000000000000000600052602160045260246000fd5b146106b1576040517f08c379a00000000000000000000000000000000000000000000000000000000081526004016106a890610f68565b60405180910390fd5b6000600460003373ffffffffffffffffffffffffffffffffffffffff1673ffffffffffffffffffffffffffffffffffffffff1681526020019081526020016000205411610733576040517f08c379a000000000000000000000000000000000000000000000000000000000815260040161072a90610f08565b60405180910390fd5b6000600460003373ffffffffffffffffffffffffffffffffffffffff1673ffffffffffffffffffffffffffffffffffffffff1681526020019081526020016000205490506000600460003373ffffffffffffffffffffffffffffffffffffffff1673ffffffffffffffffffffffffffffffffffffffff168152602001908152602001600020819055503373ffffffffffffffffffffffffffffffffffffffff166108fc829081150290604051600060405180830381858888f1935050505061083a5780600460003373ffffffffffffffffffffffffffffffffffffffff1673ffffffffffffffffffffffffffffffffffffffff168152602001908152602001600020819055505b5050565b6000600360009054906101000a900473ffffffffffffffffffffffffffffffffffffffff16905090565b6000600254905090565b600060025461087f6108eb565b10905090565b6000600154905090565b600360149054906101000a900460ff1681565b6000600460008373ffffffffffffffffffffffffffffffffffffffff1673ffffffffffffffffffffffffffffffffffffffff168152602001908152602001600020549050919050565b6000600754905090565b6000806003811115610930577f4e487b7100000000000000000000000000000000000000000000000000000000600052602160045260246000fd5b600360149054906101000a900460ff166003811115610978577f4e487b7100000000000000000000000000000000000000000000000000000000600052602160045260246000fd5b146109b8576040517f08c379a00000000000000000000000000000000000000000000000000000000081526004016109af90610f68565b60405180910390fd5b6109c0610872565b6109ff576040517f08c379a00000000000000000000000000000000000000000000000000000000081526004016109f690610f48565b60405180910390fd5b34600460003373ffffffffffffffffffffffffffffffffffffffff1673ffffffffffffffffffffffffffffffffffffffff1681526020019081526020016000206000828254610a4e9190610fbf565b925050819055503460066000828254610a679190610fbf565b9250508190555060015460065410610a95576001600560006101000a81548160ff0219169083151502179055505b50565b6002806003811115610ad3577f4e487b7100000000000000000000000000000000000000000000000000000000600052602160045260246000fd5b600360149054906101000a900460ff166003811115610b1b577f4e487b7100000000000000000000000000000000000000000000000000000000600052602160045260246000fd5b14610b5b576040517f08c379a0000000000000000000000000000000000000000000000000000000008152600401610b5290610f68565b60405180910390fd5b600360009054906101000a900473ffffffffffffffffffffffffffffffffffffffff1673ffffffffffffffffffffffffffffffffffffffff166108fc6006549081150290604051600060405180830381858888f1935050505015610c0e5760038060146101000a81548160ff02191690836003811115610c04577f4e487b7100000000000000000000000000000000000000000000000000000000600052602160045260246000fd5b0217905550610c60565b6001600360146101000a81548160ff02191690836003811115610c5a577f4e487b7100000000000000000000000000000000000000000000000000000000600052602160045260246000fd5b02179055505b50565b6000600654905090565b600081359050610c7c81611199565b92915050565b600081359050610c91816111b0565b92915050565b600060208284031215610ca957600080fd5b6000610cb784828501610c6d565b91505092915050565b600060208284031215610cd257600080fd5b6000610ce084828501610c82565b91505092915050565b610cf281611015565b82525050565b610d0181611027565b82525050565b610d1081611070565b82525050565b6000610d2182610fa3565b610d2b8185610fae565b9350610d3b818560208601611082565b610d4481611174565b840191505092915050565b6000610d5c601383610fae565b91507f4e6f7468696e6720636f6e7472696275746564000000000000000000000000006000830152602082019050919050565b6000610d9c601d83610fae565b91507f43616e6e6f742066696e697368206265666f726520646561646c696e650000006000830152602082019050919050565b6000610ddc600783610fae565b91507f4f766572647565000000000000000000000000000000000000000000000000006000830152602082019050919050565b6000610e1c600d83610fae565b91507f496e61766c6964207374617465000000000000000000000000000000000000006000830152602082019050919050565b610e5881611066565b82525050565b6000602082019050610e736000830184610ce9565b92915050565b6000606082019050610e8e6000830186610ce9565b610e9b6020830185610e4f565b610ea86040830184610cf8565b949350505050565b6000602082019050610ec56000830184610cf8565b92915050565b6000602082019050610ee06000830184610d07565b92915050565b60006020820190508181036000830152610f008184610d16565b905092915050565b60006020820190508181036000830152610f2181610d4f565b9050919050565b60006020820190508181036000830152610f4181610d8f565b9050919050565b60006020820190508181036000830152610f6181610dcf565b9050919050565b60006020820190508181036000830152610f8181610e0f565b9050919050565b6000602082019050610f9d6000830184610e4f565b92915050565b600081519050919050565b600082825260208201905092915050565b6000610fca82611066565b9150610fd583611066565b9250827fffffffffffffffffffffffffffffffffffffffffffffffffffffffffffffffff0382111561100a576110096110e7565b5b828201905092915050565b600061102082611046565b9050919050565b60008115159050919050565b600081905061104182611185565b919050565b600073ffffffffffffffffffffffffffffffffffffffff82169050919050565b6000819050919050565b600061107b82611033565b9050919050565b60005b838110156110a0578082015181840152602081019050611085565b838111156110af576000848401525b50505050565b600060028204905060018216806110cd57607f821691505b602082108114156110e1576110e0611145565b5b50919050565b7f4e487b7100000000000000000000000000000000000000000000000000000000600052601160045260246000fd5b7f4e487b7100000000000000000000000000000000000000000000000000000000600052602160045260246000fd5b7f4e487b7100000000000000000000000000000000000000000000000000000000600052602260045260246000fd5b6000601f19601f8301169050919050565b6004811061119657611195611116565b5b50565b6111a281611015565b81146111ad57600080fd5b50565b6111b981611066565b81146111c457600080fd5b5056fea2646970667358221220c2b44410bf2a1f136dcfe821b0bdafd3a137b5953c638fcc89a8922c223d5fea64736f6c63430008000033",
  "deployedBytecode": "0x6080604052600436106100e85760003560e01c806368bc00411161008a578063d18e81b311610059578063d18e81b3146102ae578063d7bb99ba146102d9578063e5225381146102e3578063fbe5d87e146102fa576100e8565b806368bc0041146101f057806391ac4b881461021b578063c19d93fb14610246578063ce40e3d414610271576100e8565b806322f8e566116100c657806322f8e5661461015a5780633ccfd60b14610183578063565a2e2c1461019a57806356b6491a146101c5576100e8565b8063083dca11146100ed57806317d7de7c146101045780631865c57d1461012f575b600080fd5b3480156100f957600080fd5b50610102610325565b005b34801561011057600080fd5b5061011961053b565b6040516101269190610ee6565b60405180910390f35b34801561013b57600080fd5b506101446105cd565b6040516101519190610ecb565b60405180910390f35b34801561016657600080fd5b50610181600480360381019061017c9190610cc0565b6105e4565b005b34801561018f57600080fd5b506101986105ee565b005b3480156101a657600080fd5b506101af61083e565b6040516101bc9190610e5e565b60405180910390f35b3480156101d157600080fd5b506101da610868565b6040516101e79190610f88565b60405180910390f35b3480156101fc57600080fd5b50610205610872565b6040516102129190610eb0565b60405180910390f35b34801561022757600080fd5b50610230610885565b60405161023d9190610f88565b60405180910390f35b34801561025257600080fd5b5061025b61088f565b6040516102689190610ecb565b60405180910390f35b34801561027d57600080fd5b5061029860048036038101906102939190610c97565b6108a2565b6040516102a59190610f88565b60405180910390f35b3480156102ba57600080fd5b506102c36108eb565b6040516102d09190610f88565b60405180910390f35b6102e16108f5565b005b3480156102ef57600080fd5b506102f8610a98565b005b34801561030657600080fd5b5061030f610c63565b60405161031c9190610f88565b60405180910390f35b6000806003811115610360577f4e487b7100000000000000000000000000000000000000000000000000000000600052602160045260246000fd5b600360149054906101000a900460ff1660038111156103a8577f4e487b7100000000000000000000000000000000000000000000000000000000600052602160045260246000fd5b146103e8576040517f08c379a00000000000000000000000000000000000000000000000000000000081526004016103df90610f68565b60405180910390fd5b6103f0610872565b15610430576040517f08c379a000000000000000000000000000000000000000000000000000000000815260040161042790610f28565b60405180910390fd5b600560009054906101000a900460ff1661049a576001600360146101000a81548160ff02191690836003811115610490577f4e487b7100000000000000000000000000000000000000000000000000000000600052602160045260246000fd5b02179055506104ec565b6002600360146101000a81548160ff021916908360038111156104e6577f4e487b7100000000000000000000000000000000000000000000000000000000600052602160045260246000fd5b02179055505b7f7ccbb520303a5cff021f34a831dad11a7472e6eb771da7492789394806039bf730600654600560009054906101000a900460ff1660405161053093929190610e79565b60405180910390a150565b60606000805461054a906110b5565b80601f0160208091040260200160405190810160405280929190818152602001828054610576906110b5565b80156105c35780601f10610598576101008083540402835291602001916105c3565b820191906000526020600020905b8154815290600101906020018083116105a657829003601f168201915b5050505050905090565b6000600360149054906101000a900460ff16905090565b8060078190555050565b6001806003811115610629577f4e487b7100000000000000000000000000000000000000000000000000000000600052602160045260246000fd5b600360149054906101000a900460ff166003811115610671577f4e487b7100000000000000000000000000000000000000000000000000000000600052602160045260246000fd5b146106b1576040517f08c379a00000000000000000000000000000000000000000000000000000000081526004016106a890610f68565b60405180910390fd5b6000600460003373ffffffffffffffffffffffffffffffffffffffff1673ffffffffffffffffffffffffffffffffffffffff1681526020019081526020016000205411610733576040517f08c379a000000000000000000000000000000000000000000000000000000000815260040161072a90610f08565b60405180910390fd5b6000600460003373ffffffffffffffffffffffffffffffffffffffff1673ffffffffffffffffffffffffffffffffffffffff1681526020019081526020016000205490506000600460003373ffffffffffffffffffffffffffffffffffffffff1673ffffffffffffffffffffffffffffffffffffffff168152602001908152602001600020819055503373ffffffffffffffffffffffffffffffffffffffff166108fc829081150290604051600060405180830381858888f1935050505061083a5780600460003373ffffffffffffffffffffffffffffffffffffffff1673ffffffffffffffffffffffffffffffffffffffff168152602001908152602001600020819055505b5050565b6000600360009054906101000a900473ffffffffffffffffffffffffffffffffffffffff16905090565b6000600254905090565b600060025461087f6108eb565b10905090565b6000600154905090565b600360149054906101000a900460ff1681565b6000600460008373ffffffffffffffffffffffffffffffffffffffff1673ffffffffffffffffffffffffffffffffffffffff168152602001908152602001600020549050919050565b6000600754905090565b6000806003811115610930577f4e487b7100000000000000000000000000000000000000000000000000000000600052602160045260246000fd5b600360149054906101000a900460ff166003811115610978577f4e487b7100000000000000000000000000000000000000000000000000000000600052602160045260246000fd5b146109b8576040517f08c379a00000000000000000000000000000000000000000000000000000000081526004016109af90610f68565b60405180910390fd5b6109c0610872565b6109ff576040517f08c379a00000000000000000000000000000000000000000000000000000000081526004016109f690610f48565b60405180910390fd5b34600460003373ffffffffffffffffffffffffffffffffffffffff1673ffffffffffffffffffffffffffffffffffffffff1681526020019081526020016000206000828254610a4e9190610fbf565b925050819055503460066000828254610a679190610fbf565b9250508190555060015460065410610a95576001600560006101000a81548160ff0219169083151502179055505b50565b6002806003811115610ad3577f4e487b7100000000000000000000000000000000000000000000000000000000600052602160045260246000fd5b600360149054906101000a900460ff166003811115610b1b577f4e487b7100000000000000000000000000000000000000000000000000000000600052602160045260246000fd5b14610b5b576040517f08c379a0000000000000000000000000000000000000000000000000000000008152600401610b5290610f68565b60405180910390fd5b600360009054906101000a900473ffffffffffffffffffffffffffffffffffffffff1673ffffffffffffffffffffffffffffffffffffffff166108fc6006549081150290604051600060405180830381858888f1935050505015610c0e5760038060146101000a81548160ff02191690836003811115610c04577f4e487b7100000000000000000000000000000000000000000000000000000000600052602160045260246000fd5b0217905550610c60565b6001600360146101000a81548160ff02191690836003811115610c5a577f4e487b7100000000000000000000000000000000000000000000000000000000600052602160045260246000fd5b02179055505b50565b6000600654905090565b600081359050610c7c81611199565b92915050565b600081359050610c91816111b0565b92915050565b600060208284031215610ca957600080fd5b6000610cb784828501610c6d565b91505092915050565b600060208284031215610cd257600080fd5b6000610ce084828501610c82565b91505092915050565b610cf281611015565b82525050565b610d0181611027565b82525050565b610d1081611070565b82525050565b6000610d2182610fa3565b610d2b8185610fae565b9350610d3b818560208601611082565b610d4481611174565b840191505092915050565b6000610d5c601383610fae565b91507f4e6f7468696e6720636f6e7472696275746564000000000000000000000000006000830152602082019050919050565b6000610d9c601d83610fae565b91507f43616e6e6f742066696e697368206265666f726520646561646c696e650000006000830152602082019050919050565b6000610ddc600783610fae565b91507f4f766572647565000000000000000000000000000000000000000000000000006000830152602082019050919050565b6000610e1c600d83610fae565b91507f496e61766c6964207374617465000000000000000000000000000000000000006000830152602082019050919050565b610e5881611066565b82525050565b6000602082019050610e736000830184610ce9565b92915050565b6000606082019050610e8e6000830186610ce9565b610e9b6020830185610e4f565b610ea86040830184610cf8565b949350505050565b6000602082019050610ec56000830184610cf8565b92915050565b6000602082019050610ee06000830184610d07565b92915050565b60006020820190508181036000830152610f008184610d16565b905092915050565b60006020820190508181036000830152610f2181610d4f565b9050919050565b60006020820190508181036000830152610f4181610d8f565b9050919050565b60006020820190508181036000830152610f6181610dcf565b9050919050565b60006020820190508181036000830152610f8181610e0f565b9050919050565b6000602082019050610f9d6000830184610e4f565b92915050565b600081519050919050565b600082825260208201905092915050565b6000610fca82611066565b9150610fd583611066565b9250827fffffffffffffffffffffffffffffffffffffffffffffffffffffffffffffffff0382111561100a576110096110e7565b5b828201905092915050565b600061102082611046565b9050919050565b60008115159050919050565b600081905061104182611185565b919050565b600073ffffffffffffffffffffffffffffffffffffffff82169050919050565b6000819050919050565b600061107b82611033565b9050919050565b60005b838110156110a0578082015181840152602081019050611085565b838111156110af576000848401525b50505050565b600060028204905060018216806110cd57607f821691505b602082108114156110e1576110e0611145565b5b50919050565b7f4e487b7100000000000000000000000000000000000000000000000000000000600052601160045260246000fd5b7f4e487b7100000000000000000000000000000000000000000000000000000000600052602160045260246000fd5b7f4e487b7100000000000000000000000000000000000000000000000000000000600052602260045260246000fd5b6000601f19601f8301169050919050565b6004811061119657611195611116565b5b50565b6111a281611015565b81146111ad57600080fd5b50565b6111b981611066565b81146111c457600080fd5b5056fea2646970667358221220c2b44410bf2a1f136dcfe821b0bdafd3a137b5953c638fcc89a8922c223d5fea64736f6c63430008000033",
  "immutableReferences": {},
  "source": "pragma solidity >=0.6.0;\n\nimport \"./CrowdFunding.sol\";\n\ncontract TestCrowdFunding is CrowdFunding {\n    uint time;\n\n    constructor(\n        string memory _name,\n        uint _targetAmountEth,\n        uint _durationInMin,\n        address _beneficiary\n    ) CrowdFunding(_name, _targetAmountEth, _durationInMin, _beneficiary) public {\n    }\n    \n    function currentTime() public view override returns(uint){\n        return time;\n    }\n\n    function setCurrentTime(uint newTime) public {\n        time = newTime;\n    }\n\n}",
  "sourcePath": "/workspace/contracts/TestCrowdFunding.sol",
  "compiler": {
    "name": "solc",
    "version": "0.8.0+commit.c7dfd78e.Emscripten.clang"
  },
  "schemaVersion": "3.4.3",
  "updatedAt": "2021-11-12T04:41:54.767Z",
  "networkType": "ethereum",
  "devdoc": {
    "kind": "dev",
    "methods": {},
    "version": 1
  },
  "userdoc": {
    "kind": "user",
    "methods": {},
    "version": 1
  }
}